{
  "_format": "hh-sol-artifact-1",
  "contractName": "Donation",
  "sourceName": "contracts/Donation.sol",
  "abi": [
    {
      "inputs": [
        {
          "internalType": "address[]",
          "name": "_admins",
          "type": "address[]"
        }
      ],
      "stateMutability": "nonpayable",
      "type": "constructor"
    },
    {
      "anonymous": false,
      "inputs": [
        {
          "indexed": false,
          "internalType": "address",
          "name": "donor",
          "type": "address"
        },
        {
          "indexed": false,
          "internalType": "address",
          "name": "addrAssociation",
          "type": "address"
        },
        {
          "indexed": false,
          "internalType": "uint256",
          "name": "mount",
          "type": "uint256"
        }
      ],
      "name": "DonationToAssociation",
      "type": "event"
    },
    {
      "anonymous": false,
      "inputs": [
        {
          "indexed": true,
          "internalType": "bytes32",
          "name": "role",
          "type": "bytes32"
        },
        {
          "indexed": true,
          "internalType": "bytes32",
          "name": "previousAdminRole",
          "type": "bytes32"
        },
        {
          "indexed": true,
          "internalType": "bytes32",
          "name": "newAdminRole",
          "type": "bytes32"
        }
      ],
      "name": "RoleAdminChanged",
      "type": "event"
    },
    {
      "anonymous": false,
      "inputs": [
        {
          "indexed": true,
          "internalType": "bytes32",
          "name": "role",
          "type": "bytes32"
        },
        {
          "indexed": true,
          "internalType": "address",
          "name": "account",
          "type": "address"
        },
        {
          "indexed": true,
          "internalType": "address",
          "name": "sender",
          "type": "address"
        }
      ],
      "name": "RoleGranted",
      "type": "event"
    },
    {
      "anonymous": false,
      "inputs": [
        {
          "indexed": true,
          "internalType": "bytes32",
          "name": "role",
          "type": "bytes32"
        },
        {
          "indexed": true,
          "internalType": "address",
          "name": "account",
          "type": "address"
        },
        {
          "indexed": true,
          "internalType": "address",
          "name": "sender",
          "type": "address"
        }
      ],
      "name": "RoleRevoked",
      "type": "event"
    },
    {
      "anonymous": false,
      "inputs": [
        {
          "indexed": true,
          "internalType": "address",
          "name": "voter",
          "type": "address"
        },
        {
          "indexed": false,
          "internalType": "bool",
          "name": "vote",
          "type": "bool"
        }
      ],
      "name": "Vote",
      "type": "event"
    },
    {
      "inputs": [],
      "name": "ADMIN_ROLE",
      "outputs": [
        {
          "internalType": "bytes32",
          "name": "",
          "type": "bytes32"
        }
      ],
      "stateMutability": "view",
      "type": "function"
    },
    {
      "inputs": [],
      "name": "DEFAULT_ADMIN_ROLE",
      "outputs": [
        {
          "internalType": "bytes32",
          "name": "",
          "type": "bytes32"
        }
      ],
      "stateMutability": "view",
      "type": "function"
    },
    {
      "inputs": [
        {
          "internalType": "address",
          "name": "_address",
          "type": "address"
        }
      ],
      "name": "_fetchAssociation",
      "outputs": [
        {
          "components": [
            {
              "internalType": "address",
              "name": "addr",
              "type": "address"
            },
            {
              "internalType": "string",
              "name": "name",
              "type": "string"
            },
            {
              "internalType": "string",
              "name": "activity",
              "type": "string"
            },
            {
              "internalType": "string",
              "name": "goal",
              "type": "string"
            },
            {
              "internalType": "string",
              "name": "localisation",
              "type": "string"
            },
            {
              "internalType": "string",
              "name": "officialWebsite",
              "type": "string"
            },
            {
              "internalType": "bool",
              "name": "isRegister",
              "type": "bool"
            },
            {
              "internalType": "bool",
              "name": "onStandBy",
              "type": "bool"
            }
          ],
          "internalType": "struct VoteMajority.InfosAssociation",
          "name": "",
          "type": "tuple"
        }
      ],
      "stateMutability": "view",
      "type": "function"
    },
    {
      "inputs": [
        {
          "internalType": "address",
          "name": "_address",
          "type": "address"
        }
      ],
      "name": "_fetchAssociationOnStandBy",
      "outputs": [
        {
          "components": [
            {
              "internalType": "address",
              "name": "addr",
              "type": "address"
            },
            {
              "internalType": "string",
              "name": "name",
              "type": "string"
            },
            {
              "internalType": "string",
              "name": "activity",
              "type": "string"
            },
            {
              "internalType": "string",
              "name": "goal",
              "type": "string"
            },
            {
              "internalType": "string",
              "name": "localisation",
              "type": "string"
            },
            {
              "internalType": "string",
              "name": "officialWebsite",
              "type": "string"
            },
            {
              "internalType": "bool",
              "name": "isRegister",
              "type": "bool"
            },
            {
              "internalType": "bool",
              "name": "onStandBy",
              "type": "bool"
            }
          ],
          "internalType": "struct VoteMajority.InfosAssociation",
          "name": "",
          "type": "tuple"
        }
      ],
      "stateMutability": "view",
      "type": "function"
    },
    {
      "inputs": [],
      "name": "adminOnStandBy",
      "outputs": [
        {
          "internalType": "address",
          "name": "",
          "type": "address"
        }
      ],
      "stateMutability": "view",
      "type": "function"
    },
    {
      "inputs": [
        {
          "internalType": "uint256",
          "name": "",
          "type": "uint256"
        }
      ],
      "name": "associationAccepted",
      "outputs": [
        {
          "internalType": "address payable",
          "name": "",
          "type": "address"
        }
      ],
      "stateMutability": "view",
      "type": "function"
    },
    {
      "inputs": [
        {
          "internalType": "address",
          "name": "",
          "type": "address"
        }
      ],
      "name": "associations",
      "outputs": [
        {
          "internalType": "address",
          "name": "addr",
          "type": "address"
        },
        {
          "internalType": "string",
          "name": "name",
          "type": "string"
        },
        {
          "internalType": "string",
          "name": "activity",
          "type": "string"
        },
        {
          "internalType": "string",
          "name": "goal",
          "type": "string"
        },
        {
          "internalType": "string",
          "name": "localisation",
          "type": "string"
        },
        {
          "internalType": "string",
          "name": "officialWebsite",
          "type": "string"
        },
        {
          "internalType": "bool",
          "name": "isRegister",
          "type": "bool"
        },
        {
          "internalType": "bool",
          "name": "onStandBy",
          "type": "bool"
        }
      ],
      "stateMutability": "view",
      "type": "function"
    },
    {
      "inputs": [
        {
          "internalType": "uint256",
          "name": "",
          "type": "uint256"
        }
      ],
      "name": "associationsOnStandby",
      "outputs": [
        {
          "internalType": "address",
          "name": "",
          "type": "address"
        }
      ],
      "stateMutability": "view",
      "type": "function"
    },
    {
      "inputs": [
        {
          "internalType": "address",
          "name": "_addressSession",
          "type": "address"
        },
        {
          "internalType": "string",
          "name": "_name",
          "type": "string"
        }
      ],
      "name": "createSession",
      "outputs": [],
      "stateMutability": "nonpayable",
      "type": "function"
    },
    {
      "inputs": [
        {
          "internalType": "address payable",
          "name": "_address",
          "type": "address"
        }
      ],
      "name": "donate",
      "outputs": [],
      "stateMutability": "payable",
      "type": "function"
    },
    {
      "inputs": [],
      "name": "getAllAssociations",
      "outputs": [
        {
          "components": [
            {
              "internalType": "address",
              "name": "addr",
              "type": "address"
            },
            {
              "internalType": "string",
              "name": "name",
              "type": "string"
            },
            {
              "internalType": "string",
              "name": "activity",
              "type": "string"
            },
            {
              "internalType": "string",
              "name": "goal",
              "type": "string"
            },
            {
              "internalType": "string",
              "name": "localisation",
              "type": "string"
            },
            {
              "internalType": "string",
              "name": "officialWebsite",
              "type": "string"
            },
            {
              "internalType": "bool",
              "name": "isRegister",
              "type": "bool"
            },
            {
              "internalType": "bool",
              "name": "onStandBy",
              "type": "bool"
            }
          ],
          "internalType": "struct VoteMajority.InfosAssociation[]",
          "name": "",
          "type": "tuple[]"
        }
      ],
      "stateMutability": "view",
      "type": "function"
    },
    {
      "inputs": [],
      "name": "getAllAssociationsOnStandBy",
      "outputs": [
        {
          "components": [
            {
              "internalType": "address",
              "name": "addr",
              "type": "address"
            },
            {
              "internalType": "string",
              "name": "name",
              "type": "string"
            },
            {
              "internalType": "string",
              "name": "activity",
              "type": "string"
            },
            {
              "internalType": "string",
              "name": "goal",
              "type": "string"
            },
            {
              "internalType": "string",
              "name": "localisation",
              "type": "string"
            },
            {
              "internalType": "string",
              "name": "officialWebsite",
              "type": "string"
            },
            {
              "internalType": "bool",
              "name": "isRegister",
              "type": "bool"
            },
            {
              "internalType": "bool",
              "name": "onStandBy",
              "type": "bool"
            }
          ],
          "internalType": "struct VoteMajority.InfosAssociation[]",
          "name": "",
          "type": "tuple[]"
        }
      ],
      "stateMutability": "view",
      "type": "function"
    },
    {
      "inputs": [
        {
          "internalType": "uint256",
          "name": "startIndex",
          "type": "uint256"
        },
        {
          "internalType": "uint256",
          "name": "count",
          "type": "uint256"
        }
      ],
      "name": "getAssociationsAtInterval",
      "outputs": [
        {
          "components": [
            {
              "internalType": "address",
              "name": "addr",
              "type": "address"
            },
            {
              "internalType": "string",
              "name": "name",
              "type": "string"
            },
            {
              "internalType": "string",
              "name": "activity",
              "type": "string"
            },
            {
              "internalType": "string",
              "name": "goal",
              "type": "string"
            },
            {
              "internalType": "string",
              "name": "localisation",
              "type": "string"
            },
            {
              "internalType": "string",
              "name": "officialWebsite",
              "type": "string"
            },
            {
              "internalType": "bool",
              "name": "isRegister",
              "type": "bool"
            },
            {
              "internalType": "bool",
              "name": "onStandBy",
              "type": "bool"
            }
          ],
          "internalType": "struct VoteMajority.InfosAssociation[]",
          "name": "",
          "type": "tuple[]"
        }
      ],
      "stateMutability": "view",
      "type": "function"
    },
    {
      "inputs": [
        {
          "internalType": "bytes32",
          "name": "role",
          "type": "bytes32"
        }
      ],
      "name": "getRoleAdmin",
      "outputs": [
        {
          "internalType": "bytes32",
          "name": "",
          "type": "bytes32"
        }
      ],
      "stateMutability": "view",
      "type": "function"
    },
    {
      "inputs": [
        {
          "internalType": "bytes32",
          "name": "role",
          "type": "bytes32"
        },
        {
          "internalType": "uint256",
          "name": "index",
          "type": "uint256"
        }
      ],
      "name": "getRoleMember",
      "outputs": [
        {
          "internalType": "address",
          "name": "",
          "type": "address"
        }
      ],
      "stateMutability": "view",
      "type": "function"
    },
    {
      "inputs": [
        {
          "internalType": "bytes32",
          "name": "role",
          "type": "bytes32"
        }
      ],
      "name": "getRoleMemberCount",
      "outputs": [
        {
          "internalType": "uint256",
          "name": "",
          "type": "uint256"
        }
      ],
      "stateMutability": "view",
      "type": "function"
    },
    {
      "inputs": [
        {
          "internalType": "bytes32",
          "name": "role",
          "type": "bytes32"
        },
        {
          "internalType": "address",
          "name": "account",
          "type": "address"
        }
      ],
      "name": "grantRole",
      "outputs": [],
      "stateMutability": "nonpayable",
      "type": "function"
    },
    {
      "inputs": [
        {
          "internalType": "bytes32",
          "name": "role",
          "type": "bytes32"
        },
        {
          "internalType": "address",
          "name": "account",
          "type": "address"
        }
      ],
      "name": "hasRole",
      "outputs": [
        {
          "internalType": "bool",
          "name": "",
          "type": "bool"
        }
      ],
      "stateMutability": "view",
      "type": "function"
    },
    {
      "inputs": [
        {
          "internalType": "address",
          "name": "_addr",
          "type": "address"
        },
        {
          "internalType": "string",
          "name": "_name",
          "type": "string"
        },
        {
          "internalType": "string",
          "name": "_activity",
          "type": "string"
        },
        {
          "internalType": "string",
          "name": "_goal",
          "type": "string"
        },
        {
          "internalType": "string",
          "name": "_localisation",
          "type": "string"
        },
        {
          "internalType": "string",
          "name": "_officialWebsite",
          "type": "string"
        }
      ],
      "name": "registerNewAssociation",
      "outputs": [],
      "stateMutability": "nonpayable",
      "type": "function"
    },
    {
      "inputs": [
        {
          "internalType": "bytes32",
          "name": "role",
          "type": "bytes32"
        },
        {
          "internalType": "address",
          "name": "account",
          "type": "address"
        }
      ],
      "name": "renounceRole",
      "outputs": [],
      "stateMutability": "nonpayable",
      "type": "function"
    },
    {
      "inputs": [
        {
          "internalType": "bytes32",
          "name": "role",
          "type": "bytes32"
        },
        {
          "internalType": "address",
          "name": "account",
          "type": "address"
        }
      ],
      "name": "revokeRole",
      "outputs": [],
      "stateMutability": "nonpayable",
      "type": "function"
    },
    {
      "inputs": [
        {
          "internalType": "address",
          "name": "",
          "type": "address"
        },
        {
          "internalType": "address",
          "name": "",
          "type": "address"
        }
      ],
      "name": "sessionAdmin",
      "outputs": [
        {
          "internalType": "bool",
          "name": "hasVoted",
          "type": "bool"
        },
        {
          "internalType": "bool",
          "name": "hasApproved",
          "type": "bool"
        }
      ],
      "stateMutability": "view",
      "type": "function"
    },
    {
      "inputs": [
        {
          "internalType": "address",
          "name": "",
          "type": "address"
        }
      ],
      "name": "sessions",
      "outputs": [
        {
          "internalType": "string",
          "name": "name",
          "type": "string"
        },
        {
          "internalType": "uint256",
          "name": "totalVotes",
          "type": "uint256"
        },
        {
          "internalType": "uint256",
          "name": "majorityThreshold",
          "type": "uint256"
        },
        {
          "internalType": "bool",
          "name": "isActive",
          "type": "bool"
        }
      ],
      "stateMutability": "view",
      "type": "function"
    },
    {
      "inputs": [
        {
          "internalType": "string",
          "name": "_name",
          "type": "string"
        },
        {
          "internalType": "string",
          "name": "_activity",
          "type": "string"
        },
        {
          "internalType": "string",
          "name": "_goal",
          "type": "string"
        },
        {
          "internalType": "string",
          "name": "_localisation",
          "type": "string"
        },
        {
          "internalType": "string",
          "name": "_officialWebsite",
          "type": "string"
        }
      ],
      "name": "setAssociationForm",
      "outputs": [],
      "stateMutability": "nonpayable",
      "type": "function"
    },
    {
      "inputs": [
        {
          "internalType": "bytes4",
          "name": "interfaceId",
          "type": "bytes4"
        }
      ],
      "name": "supportsInterface",
      "outputs": [
        {
          "internalType": "bool",
          "name": "",
          "type": "bool"
        }
      ],
      "stateMutability": "view",
      "type": "function"
    },
    {
      "inputs": [
        {
          "internalType": "address payable",
          "name": "_addrSession",
          "type": "address"
        },
        {
          "internalType": "bool",
          "name": "_vote",
          "type": "bool"
        }
      ],
      "name": "vote",
      "outputs": [],
      "stateMutability": "nonpayable",
      "type": "function"
    }
  ],
  "bytecode": "0x60806040523480156200001157600080fd5b50604051620060b0380380620060b0833981810160405281019062000037919062000528565b80805160028190555060005b600254811015620000b1576200009d7fa49807205ce4d355092ef5a8a18f56e8913cf4a201fbe287825b095693c2177583838151811062000089576200008862000579565b5b6020026020010151620000ba60201b60201c565b80620000a990620005e1565b905062000043565b5050506200062e565b620000d182826200010260201b62002c331760201c565b620000fd8160016000858152602001908152602001600020620001f360201b62002d131790919060201c565b505050565b6200011482826200022b60201b60201c565b620001ef57600160008084815260200190815260200160002060000160008373ffffffffffffffffffffffffffffffffffffffff1673ffffffffffffffffffffffffffffffffffffffff16815260200190815260200160002060006101000a81548160ff021916908315150217905550620001946200029560201b60201c565b73ffffffffffffffffffffffffffffffffffffffff168173ffffffffffffffffffffffffffffffffffffffff16837f2f8788117e7eff1d82e926ec794901d17c78024a50270940304540a733656f0d60405160405180910390a45b5050565b600062000223836000018373ffffffffffffffffffffffffffffffffffffffff1660001b6200029d60201b60201c565b905092915050565b600080600084815260200190815260200160002060000160008373ffffffffffffffffffffffffffffffffffffffff1673ffffffffffffffffffffffffffffffffffffffff16815260200190815260200160002060009054906101000a900460ff16905092915050565b600033905090565b6000620002b183836200031760201b60201c565b6200030c57826000018290806001815401808255809150506001900390600052602060002001600090919091909150558260000180549050836001016000848152602001908152602001600020819055506001905062000311565b600090505b92915050565b600080836001016000848152602001908152602001600020541415905092915050565b6000604051905090565b600080fd5b600080fd5b600080fd5b6000601f19601f8301169050919050565b7f4e487b7100000000000000000000000000000000000000000000000000000000600052604160045260246000fd5b6200039e8262000353565b810181811067ffffffffffffffff82111715620003c057620003bf62000364565b5b80604052505050565b6000620003d56200033a565b9050620003e3828262000393565b919050565b600067ffffffffffffffff82111562000406576200040562000364565b5b602082029050602081019050919050565b600080fd5b600073ffffffffffffffffffffffffffffffffffffffff82169050919050565b600062000449826200041c565b9050919050565b6200045b816200043c565b81146200046757600080fd5b50565b6000815190506200047b8162000450565b92915050565b6000620004986200049284620003e8565b620003c9565b90508083825260208201905060208402830185811115620004be57620004bd62000417565b5b835b81811015620004eb5780620004d688826200046a565b845260208401935050602081019050620004c0565b5050509392505050565b600082601f8301126200050d576200050c6200034e565b5b81516200051f84826020860162000481565b91505092915050565b60006020828403121562000541576200054062000344565b5b600082015167ffffffffffffffff81111562000562576200056162000349565b5b6200057084828501620004f5565b91505092915050565b7f4e487b7100000000000000000000000000000000000000000000000000000000600052603260045260246000fd5b7f4e487b7100000000000000000000000000000000000000000000000000000000600052601160045260246000fd5b6000819050919050565b6000620005ee82620005d7565b91507fffffffffffffffffffffffffffffffffffffffffffffffffffffffffffffffff8203620006235762000622620005a8565b5b600182019050919050565b615a72806200063e6000396000f3fe6080604052600436106101805760003560e01c806375b238fc116100d1578063bd041c4d1161008a578063ce4b87f611610064578063ce4b87f6146105ed578063d547741f1461062a578063ef730cb314610653578063f189e0b51461067e57610180565b8063bd041c4d1461055e578063ca15c87314610587578063cc97f8fb146105c457610180565b806375b238fc1461040d5780639010d07c1461043857806391d148541461047557806395d1d4c5146104b25780639fa4972b146104f6578063a217fddf1461053357610180565b80632f2ff15d1161013e578063431a1b9711610118578063431a1b971461032757806345118fd8146103675780634f1ce3fa146103a45780636dcef697146103e257610180565b80632f2ff15d1461029857806336568abe146102c157806340004c10146102ea57610180565b8062362a95146101855780630127f79c146101a157806301ffc9a7146101cc57806311b3c80514610209578063248a9ca3146102325780632bd7aa291461026f575b600080fd5b61019f600480360381019061019a9190613e25565b6106bb565b005b3480156101ad57600080fd5b506101b6610878565b6040516101c391906140ac565b60405180910390f35b3480156101d857600080fd5b506101f360048036038101906101ee9190614126565b61096d565b6040516102009190614162565b60405180910390f35b34801561021557600080fd5b50610230600480360381019061022b91906142b2565b6109e7565b005b34801561023e57600080fd5b50610259600480360381019061025491906143ef565b610c0d565b604051610266919061442b565b60405180910390f35b34801561027b57600080fd5b5061029660048036038101906102919190614472565b610c2c565b005b3480156102a457600080fd5b506102bf60048036038101906102ba91906144ce565b611202565b005b3480156102cd57600080fd5b506102e860048036038101906102e391906144ce565b611223565b005b3480156102f657600080fd5b50610311600480360381019061030c9190614544565b6112a6565b60405161031e91906140ac565b60405180910390f35b34801561033357600080fd5b5061034e60048036038101906103499190614584565b61149a565b60405161035e949392919061460a565b60405180910390f35b34801561037357600080fd5b5061038e60048036038101906103899190614656565b61155f565b60405161039b9190614692565b60405180910390f35b3480156103b057600080fd5b506103cb60048036038101906103c691906146ad565b61159e565b6040516103d99291906146ed565b60405180910390f35b3480156103ee57600080fd5b506103f76115e9565b60405161040491906140ac565b60405180910390f35b34801561041957600080fd5b50610422611734565b60405161042f919061442b565b60405180910390f35b34801561044457600080fd5b5061045f600480360381019061045a9190614716565b611758565b60405161046c9190614692565b60405180910390f35b34801561048157600080fd5b5061049c600480360381019061049791906144ce565b611787565b6040516104a99190614162565b60405180910390f35b3480156104be57600080fd5b506104d960048036038101906104d49190614584565b6117f1565b6040516104ed989796959493929190614756565b60405180910390f35b34801561050257600080fd5b5061051d60048036038101906105189190614584565b611b1b565b60405161052a91906148c3565b60405180910390f35b34801561053f57600080fd5b50610548611f6a565b604051610555919061442b565b60405180910390f35b34801561056a57600080fd5b5061058560048036038101906105809190614911565b611f71565b005b34801561059357600080fd5b506105ae60048036038101906105a991906143ef565b612366565b6040516105bb9190614951565b60405180910390f35b3480156105d057600080fd5b506105eb60048036038101906105e6919061496c565b61238a565b005b3480156105f957600080fd5b50610614600480360381019061060f9190614584565b61275e565b60405161062191906148c3565b60405180910390f35b34801561063657600080fd5b50610651600480360381019061064c91906144ce565b612bad565b005b34801561065f57600080fd5b50610668612bce565b6040516106759190614692565b60405180910390f35b34801561068a57600080fd5b506106a560048036038101906106a09190614656565b612bf4565b6040516106b29190614a94565b60405180910390f35b600034116106fe576040517f08c379a00000000000000000000000000000000000000000000000000000000081526004016106f590614afb565b60405180910390fd5b600360008273ffffffffffffffffffffffffffffffffffffffff1673ffffffffffffffffffffffffffffffffffffffff16815260200190815260200160002060060160009054906101000a900460ff1661078d576040517f08c379a000000000000000000000000000000000000000000000000000000000815260040161078490614b67565b60405180910390fd5b60008173ffffffffffffffffffffffffffffffffffffffff16346040516107b390614bb8565b60006040518083038185875af1925050503d80600081146107f0576040519150601f19603f3d011682016040523d82523d6000602084013e6107f5565b606091505b5050905080610839576040517f08c379a000000000000000000000000000000000000000000000000000000000815260040161083090614c19565b60405180910390fd5b7ff0e6335e8e4539413fb4be89d968b49e24b507a4709eea7e587a9a665463da0533833460405161086c93929190614c98565b60405180910390a15050565b6060600060048054905067ffffffffffffffff81111561089b5761089a614187565b5b6040519080825280602002602001820160405280156108d457816020015b6108c1613d54565b8152602001906001900390816108b95790505b50905060005b600480549050811015610965576000600482815481106108fd576108fc614ccf565b5b9060005260206000200160009054906101000a900473ffffffffffffffffffffffffffffffffffffffff16905061093381611b1b565b83838151811061094657610945614ccf565b5b602002602001018190525050808061095d90614d2d565b9150506108da565b508091505090565b60007f5a05180f000000000000000000000000000000000000000000000000000000007bffffffffffffffffffffffffffffffffffffffffffffffffffffffff1916827bffffffffffffffffffffffffffffffffffffffffffffffffffffffff191614806109e057506109df82612d43565b5b9050919050565b600360003373ffffffffffffffffffffffffffffffffffffffff1673ffffffffffffffffffffffffffffffffffffffff16815260200190815260200160002060060160009054906101000a900460ff16610a76576040517f08c379a0000000000000000000000000000000000000000000000000000000008152600401610a6d90614dc1565b60405180910390fd5b84600360003373ffffffffffffffffffffffffffffffffffffffff1673ffffffffffffffffffffffffffffffffffffffff1681526020019081526020016000206001019081610ac59190614fe3565b5083600360003373ffffffffffffffffffffffffffffffffffffffff1673ffffffffffffffffffffffffffffffffffffffff1681526020019081526020016000206002019081610b159190614fe3565b5082600360003373ffffffffffffffffffffffffffffffffffffffff1673ffffffffffffffffffffffffffffffffffffffff1681526020019081526020016000206003019081610b659190614fe3565b5081600360003373ffffffffffffffffffffffffffffffffffffffff1673ffffffffffffffffffffffffffffffffffffffff1681526020019081526020016000206004019081610bb59190614fe3565b5080600360003373ffffffffffffffffffffffffffffffffffffffff1673ffffffffffffffffffffffffffffffffffffffff1681526020019081526020016000206005019081610c059190614fe3565b505050505050565b6000806000838152602001908152602001600020600101549050919050565b7fa49807205ce4d355092ef5a8a18f56e8913cf4a201fbe287825b095693c21775610c5681612dbd565b600760008473ffffffffffffffffffffffffffffffffffffffff1673ffffffffffffffffffffffffffffffffffffffff16815260200190815260200160002060030160009054906101000a900460ff1615610ce6576040517f08c379a0000000000000000000000000000000000000000000000000000000008152600401610cdd90615101565b60405180910390fd5b6040518060400160405280600b81526020017f6173736f63696174696f6e0000000000000000000000000000000000000000008152508051906020012082805190602001201480610d7957506040518060400160405280600581526020017f61646d696e000000000000000000000000000000000000000000000000000000815250805190602001208280519060200120145b80610dc657506040518060400160405280601181526020017f7265766f6b654173736f63696174696f6e000000000000000000000000000000815250805190602001208280519060200120145b610e05576040517f08c379a0000000000000000000000000000000000000000000000000000000008152600401610dfc90615193565b60405180910390fd5b6040518060400160405280600b81526020017f6173736f63696174696f6e00000000000000000000000000000000000000000081525080519060200120828051906020012003610ee357600360008473ffffffffffffffffffffffffffffffffffffffff1673ffffffffffffffffffffffffffffffffffffffff16815260200190815260200160002060060160019054906101000a900460ff16610ede576040517f08c379a0000000000000000000000000000000000000000000000000000000008152600401610ed590615225565b60405180910390fd5b61114a565b6040518060400160405280601181526020017f7265766f6b654173736f63696174696f6e00000000000000000000000000000081525080519060200120828051906020012003610fc157600360008473ffffffffffffffffffffffffffffffffffffffff1673ffffffffffffffffffffffffffffffffffffffff16815260200190815260200160002060060160009054906101000a900460ff16610fbc576040517f08c379a0000000000000000000000000000000000000000000000000000000008152600401610fb390615291565b60405180910390fd5b611149565b6040518060400160405280600581526020017f61646d696e00000000000000000000000000000000000000000000000000000081525080519060200120828051906020012003611148576110357fa49807205ce4d355092ef5a8a18f56e8913cf4a201fbe287825b095693c2177584611787565b15611075576040517f08c379a000000000000000000000000000000000000000000000000000000000815260040161106c906152fd565b60405180910390fd5b600073ffffffffffffffffffffffffffffffffffffffff16600560009054906101000a900473ffffffffffffffffffffffffffffffffffffffff1673ffffffffffffffffffffffffffffffffffffffff1614611106576040517f08c379a00000000000000000000000000000000000000000000000000000000081526004016110fd9061538f565b60405180910390fd5b82600560006101000a81548173ffffffffffffffffffffffffffffffffffffffff021916908373ffffffffffffffffffffffffffffffffffffffff1602179055505b5b5b604051806080016040528083815260200160008152602001600254815260200160011515815250600760008573ffffffffffffffffffffffffffffffffffffffff1673ffffffffffffffffffffffffffffffffffffffff16815260200190815260200160002060008201518160000190816111c59190614fe3565b50602082015181600101556040820151816002015560608201518160030160006101000a81548160ff021916908315150217905550905050505050565b61120b82610c0d565b61121481612dbd565b61121e8383612dd1565b505050565b61122b612e05565b73ffffffffffffffffffffffffffffffffffffffff168173ffffffffffffffffffffffffffffffffffffffff1614611298576040517f08c379a000000000000000000000000000000000000000000000000000000000815260040161128f90615421565b60405180910390fd5b6112a28282612e0d565b5050565b60606000600680549050905080841015806112c15750600083145b1561132357600067ffffffffffffffff8111156112e1576112e0614187565b5b60405190808252806020026020018201604052801561131a57816020015b611307613d54565b8152602001906001900390816112ff5790505b50915050611494565b60008390508184866113359190615441565b111561134a5784826113479190615475565b90505b60008167ffffffffffffffff81111561136657611365614187565b5b60405190808252806020026020018201604052801561139f57816020015b61138c613d54565b8152602001906001900390816113845790505b50905060005b8281101561148c576000600682896113bd9190615441565b815481106113ce576113cd614ccf565b5b9060005260206000200160009054906101000a900473ffffffffffffffffffffffffffffffffffffffff169050600360008273ffffffffffffffffffffffffffffffffffffffff1673ffffffffffffffffffffffffffffffffffffffff16815260200190815260200160002060060160009054906101000a900460ff1615611478576114598161275e565b83838151811061146c5761146b614ccf565b5b60200260200101819052505b50808061148490614d2d565b9150506113a5565b508093505050505b92915050565b60076020528060005260406000206000915090508060000180546114bd90614e10565b80601f01602080910402602001604051908101604052809291908181526020018280546114e990614e10565b80156115365780601f1061150b57610100808354040283529160200191611536565b820191906000526020600020905b81548152906001019060200180831161151957829003601f168201915b5050505050908060010154908060020154908060030160009054906101000a900460ff16905084565b6004818154811061156f57600080fd5b906000526020600020016000915054906101000a900473ffffffffffffffffffffffffffffffffffffffff1681565b6008602052816000526040600020602052806000526040600020600091509150508060000160009054906101000a900460ff16908060000160019054906101000a900460ff16905082565b6060600060068054905067ffffffffffffffff81111561160c5761160b614187565b5b60405190808252806020026020018201604052801561164557816020015b611632613d54565b81526020019060019003908161162a5790505b50905060005b60068054905081101561172c5760006006828154811061166e5761166d614ccf565b5b9060005260206000200160009054906101000a900473ffffffffffffffffffffffffffffffffffffffff169050600360008273ffffffffffffffffffffffffffffffffffffffff1673ffffffffffffffffffffffffffffffffffffffff16815260200190815260200160002060060160009054906101000a900460ff1615611718576116f98161275e565b83838151811061170c5761170b614ccf565b5b60200260200101819052505b50808061172490614d2d565b91505061164b565b508091505090565b7fa49807205ce4d355092ef5a8a18f56e8913cf4a201fbe287825b095693c2177581565b600061177f8260016000868152602001908152602001600020612e4190919063ffffffff16565b905092915050565b600080600084815260200190815260200160002060000160008373ffffffffffffffffffffffffffffffffffffffff1673ffffffffffffffffffffffffffffffffffffffff16815260200190815260200160002060009054906101000a900460ff16905092915050565b60036020528060005260406000206000915090508060000160009054906101000a900473ffffffffffffffffffffffffffffffffffffffff169080600101805461183a90614e10565b80601f016020809104026020016040519081016040528092919081815260200182805461186690614e10565b80156118b35780601f10611888576101008083540402835291602001916118b3565b820191906000526020600020905b81548152906001019060200180831161189657829003601f168201915b5050505050908060020180546118c890614e10565b80601f01602080910402602001604051908101604052809291908181526020018280546118f490614e10565b80156119415780601f1061191657610100808354040283529160200191611941565b820191906000526020600020905b81548152906001019060200180831161192457829003601f168201915b50505050509080600301805461195690614e10565b80601f016020809104026020016040519081016040528092919081815260200182805461198290614e10565b80156119cf5780601f106119a4576101008083540402835291602001916119cf565b820191906000526020600020905b8154815290600101906020018083116119b257829003601f168201915b5050505050908060040180546119e490614e10565b80601f0160208091040260200160405190810160405280929190818152602001828054611a1090614e10565b8015611a5d5780601f10611a3257610100808354040283529160200191611a5d565b820191906000526020600020905b815481529060010190602001808311611a4057829003601f168201915b505050505090806005018054611a7290614e10565b80601f0160208091040260200160405190810160405280929190818152602001828054611a9e90614e10565b8015611aeb5780601f10611ac057610100808354040283529160200191611aeb565b820191906000526020600020905b815481529060010190602001808311611ace57829003601f168201915b5050505050908060060160009054906101000a900460ff16908060060160019054906101000a900460ff16905088565b611b23613d54565b600360008373ffffffffffffffffffffffffffffffffffffffff1673ffffffffffffffffffffffffffffffffffffffff16815260200190815260200160002060060160019054906101000a900460ff16611bb2576040517f08c379a0000000000000000000000000000000000000000000000000000000008152600401611ba9906154f5565b60405180910390fd5b600360008373ffffffffffffffffffffffffffffffffffffffff1673ffffffffffffffffffffffffffffffffffffffff168152602001908152602001600020604051806101000160405290816000820160009054906101000a900473ffffffffffffffffffffffffffffffffffffffff1673ffffffffffffffffffffffffffffffffffffffff1673ffffffffffffffffffffffffffffffffffffffff168152602001600182018054611c6390614e10565b80601f0160208091040260200160405190810160405280929190818152602001828054611c8f90614e10565b8015611cdc5780601f10611cb157610100808354040283529160200191611cdc565b820191906000526020600020905b815481529060010190602001808311611cbf57829003601f168201915b50505050508152602001600282018054611cf590614e10565b80601f0160208091040260200160405190810160405280929190818152602001828054611d2190614e10565b8015611d6e5780601f10611d4357610100808354040283529160200191611d6e565b820191906000526020600020905b815481529060010190602001808311611d5157829003601f168201915b50505050508152602001600382018054611d8790614e10565b80601f0160208091040260200160405190810160405280929190818152602001828054611db390614e10565b8015611e005780601f10611dd557610100808354040283529160200191611e00565b820191906000526020600020905b815481529060010190602001808311611de357829003601f168201915b50505050508152602001600482018054611e1990614e10565b80601f0160208091040260200160405190810160405280929190818152602001828054611e4590614e10565b8015611e925780601f10611e6757610100808354040283529160200191611e92565b820191906000526020600020905b815481529060010190602001808311611e7557829003601f168201915b50505050508152602001600582018054611eab90614e10565b80601f0160208091040260200160405190810160405280929190818152602001828054611ed790614e10565b8015611f245780601f10611ef957610100808354040283529160200191611f24565b820191906000526020600020905b815481529060010190602001808311611f0757829003601f168201915b505050505081526020016006820160009054906101000a900460ff161515151581526020016006820160019054906101000a900460ff1615151515815250509050919050565b6000801b81565b7fa49807205ce4d355092ef5a8a18f56e8913cf4a201fbe287825b095693c21775611f9b81612dbd565b600760008473ffffffffffffffffffffffffffffffffffffffff1673ffffffffffffffffffffffffffffffffffffffff16815260200190815260200160002060030160009054906101000a900460ff1661202a576040517f08c379a000000000000000000000000000000000000000000000000000000000815260040161202190615561565b60405180910390fd5b600860008473ffffffffffffffffffffffffffffffffffffffff1673ffffffffffffffffffffffffffffffffffffffff16815260200190815260200160002060003373ffffffffffffffffffffffffffffffffffffffff1673ffffffffffffffffffffffffffffffffffffffff16815260200190815260200160002060000160009054906101000a900460ff16156120f7576040517f08c379a00000000000000000000000000000000000000000000000000000000081526004016120ee906155cd565b60405180910390fd5b6001600860008573ffffffffffffffffffffffffffffffffffffffff1673ffffffffffffffffffffffffffffffffffffffff16815260200190815260200160002060003373ffffffffffffffffffffffffffffffffffffffff1673ffffffffffffffffffffffffffffffffffffffff16815260200190815260200160002060000160006101000a81548160ff02191690831515021790555081600860008573ffffffffffffffffffffffffffffffffffffffff1673ffffffffffffffffffffffffffffffffffffffff16815260200190815260200160002060003373ffffffffffffffffffffffffffffffffffffffff1673ffffffffffffffffffffffffffffffffffffffff16815260200190815260200160002060000160016101000a81548160ff021916908315150217905550600760008473ffffffffffffffffffffffffffffffffffffffff1673ffffffffffffffffffffffffffffffffffffffff168152602001908152602001600020600101600081548092919061227990614d2d565b91905055503373ffffffffffffffffffffffffffffffffffffffff167fa635d31e67484fd1d93ba01ab0ef882e4440a78aa40d0e2771e8a2aace459869836040516122c49190614162565b60405180910390a2600760008473ffffffffffffffffffffffffffffffffffffffff1673ffffffffffffffffffffffffffffffffffffffff16815260200190815260200160002060020154600760008573ffffffffffffffffffffffffffffffffffffffff1673ffffffffffffffffffffffffffffffffffffffff16815260200190815260200160002060010154106123615761236083612e5b565b5b505050565b600061238360016000848152602001908152602001600020613535565b9050919050565b600360008773ffffffffffffffffffffffffffffffffffffffff1673ffffffffffffffffffffffffffffffffffffffff16815260200190815260200160002060060160019054906101000a900460ff161561241a576040517f08c379a000000000000000000000000000000000000000000000000000000000815260040161241190615639565b60405180910390fd5b606460048054905010612462576040517f08c379a0000000000000000000000000000000000000000000000000000000008152600401612459906156cb565b60405180910390fd5b60405180602001604052806000815250805190602001208580519060200120141580156124ac57506040518060200160405280600081525080519060200120848051906020012014155b80156124d557506040518060200160405280600081525080519060200120838051906020012014155b80156124fe57506040518060200160405280600081525080519060200120828051906020012014155b801561252757506040518060200160405280600081525080519060200120818051906020012014155b612566576040517f08c379a000000000000000000000000000000000000000000000000000000000815260040161255d90615737565b60405180910390fd5b6004869080600181540180825580915050600190039060005260206000200160009091909190916101000a81548173ffffffffffffffffffffffffffffffffffffffff021916908373ffffffffffffffffffffffffffffffffffffffff1602179055506040518061010001604052808773ffffffffffffffffffffffffffffffffffffffff16815260200186815260200185815260200184815260200183815260200182815260200160001515815260200160011515815250600360008873ffffffffffffffffffffffffffffffffffffffff1673ffffffffffffffffffffffffffffffffffffffff16815260200190815260200160002060008201518160000160006101000a81548173ffffffffffffffffffffffffffffffffffffffff021916908373ffffffffffffffffffffffffffffffffffffffff16021790555060208201518160010190816126ba9190614fe3565b5060408201518160020190816126d09190614fe3565b5060608201518160030190816126e69190614fe3565b5060808201518160040190816126fc9190614fe3565b5060a08201518160050190816127129190614fe3565b5060c08201518160060160006101000a81548160ff02191690831515021790555060e08201518160060160016101000a81548160ff021916908315150217905550905050505050505050565b612766613d54565b600360008373ffffffffffffffffffffffffffffffffffffffff1673ffffffffffffffffffffffffffffffffffffffff16815260200190815260200160002060060160009054906101000a900460ff166127f5576040517f08c379a00000000000000000000000000000000000000000000000000000000081526004016127ec90614b67565b60405180910390fd5b600360008373ffffffffffffffffffffffffffffffffffffffff1673ffffffffffffffffffffffffffffffffffffffff168152602001908152602001600020604051806101000160405290816000820160009054906101000a900473ffffffffffffffffffffffffffffffffffffffff1673ffffffffffffffffffffffffffffffffffffffff1673ffffffffffffffffffffffffffffffffffffffff1681526020016001820180546128a690614e10565b80601f01602080910402602001604051908101604052809291908181526020018280546128d290614e10565b801561291f5780601f106128f45761010080835404028352916020019161291f565b820191906000526020600020905b81548152906001019060200180831161290257829003601f168201915b5050505050815260200160028201805461293890614e10565b80601f016020809104026020016040519081016040528092919081815260200182805461296490614e10565b80156129b15780601f10612986576101008083540402835291602001916129b1565b820191906000526020600020905b81548152906001019060200180831161299457829003601f168201915b505050505081526020016003820180546129ca90614e10565b80601f01602080910402602001604051908101604052809291908181526020018280546129f690614e10565b8015612a435780601f10612a1857610100808354040283529160200191612a43565b820191906000526020600020905b815481529060010190602001808311612a2657829003601f168201915b50505050508152602001600482018054612a5c90614e10565b80601f0160208091040260200160405190810160405280929190818152602001828054612a8890614e10565b8015612ad55780601f10612aaa57610100808354040283529160200191612ad5565b820191906000526020600020905b815481529060010190602001808311612ab857829003601f168201915b50505050508152602001600582018054612aee90614e10565b80601f0160208091040260200160405190810160405280929190818152602001828054612b1a90614e10565b8015612b675780601f10612b3c57610100808354040283529160200191612b67565b820191906000526020600020905b815481529060010190602001808311612b4a57829003601f168201915b505050505081526020016006820160009054906101000a900460ff161515151581526020016006820160019054906101000a900460ff1615151515815250509050919050565b612bb682610c0d565b612bbf81612dbd565b612bc98383612e0d565b505050565b600560009054906101000a900473ffffffffffffffffffffffffffffffffffffffff1681565b60068181548110612c0457600080fd5b906000526020600020016000915054906101000a900473ffffffffffffffffffffffffffffffffffffffff1681565b612c3d8282611787565b612d0f57600160008084815260200190815260200160002060000160008373ffffffffffffffffffffffffffffffffffffffff1673ffffffffffffffffffffffffffffffffffffffff16815260200190815260200160002060006101000a81548160ff021916908315150217905550612cb4612e05565b73ffffffffffffffffffffffffffffffffffffffff168173ffffffffffffffffffffffffffffffffffffffff16837f2f8788117e7eff1d82e926ec794901d17c78024a50270940304540a733656f0d60405160405180910390a45b5050565b6000612d3b836000018373ffffffffffffffffffffffffffffffffffffffff1660001b61354a565b905092915050565b60007f7965db0b000000000000000000000000000000000000000000000000000000007bffffffffffffffffffffffffffffffffffffffffffffffffffffffff1916827bffffffffffffffffffffffffffffffffffffffffffffffffffffffff19161480612db65750612db5826135ba565b5b9050919050565b612dce81612dc9612e05565b613624565b50565b612ddb8282612c33565b612e008160016000858152602001908152602001600020612d1390919063ffffffff16565b505050565b600033905090565b612e1782826136a9565b612e3c816001600085815260200190815260200160002061378a90919063ffffffff16565b505050565b6000612e5083600001836137ba565b60001c905092915050565b60008060005b600254811015612f67576000612e977fa49807205ce4d355092ef5a8a18f56e8913cf4a201fbe287825b095693c2177583611758565b905060011515600860008773ffffffffffffffffffffffffffffffffffffffff1673ffffffffffffffffffffffffffffffffffffffff16815260200190815260200160002060008373ffffffffffffffffffffffffffffffffffffffff1673ffffffffffffffffffffffffffffffffffffffff16815260200190815260200160002060000160019054906101000a900460ff16151503612f44578380612f3c90614d2d565b945050612f53565b8280612f4f90614d2d565b9350505b508080612f5f90614d2d565b915050612e61565b50600081831190506000600760008673ffffffffffffffffffffffffffffffffffffffff1673ffffffffffffffffffffffffffffffffffffffff168152602001908152602001600020600001604051612fc091906157ef565b604051809103902090508115613244576040518060400160405280600581526020017f61646d696e00000000000000000000000000000000000000000000000000000081525080519060200120810361309c5761303d7fa49807205ce4d355092ef5a8a18f56e8913cf4a201fbe287825b095693c2177586612dd1565b6000600560006101000a81548173ffffffffffffffffffffffffffffffffffffffff021916908373ffffffffffffffffffffffffffffffffffffffff1602179055506002600081548092919061309290614d2d565b9190505550613243565b6040518060400160405280600b81526020017f6173736f63696174696f6e0000000000000000000000000000000000000000008152508051906020012081036131a2576006859080600181540180825580915050600190039060005260206000200160009091909190916101000a81548173ffffffffffffffffffffffffffffffffffffffff021916908373ffffffffffffffffffffffffffffffffffffffff1602179055506001600360008773ffffffffffffffffffffffffffffffffffffffff1673ffffffffffffffffffffffffffffffffffffffff16815260200190815260200160002060060160006101000a81548160ff021916908315150217905550613242565b6040518060400160405280601181526020017f7265766f6b654173736f63696174696f6e000000000000000000000000000000815250805190602001208103613241576000600360008773ffffffffffffffffffffffffffffffffffffffff1673ffffffffffffffffffffffffffffffffffffffff16815260200190815260200160002060060160006101000a81548160ff0219169083151502179055505b5b5b5b6040518060400160405280600b81526020017f6173736f63696174696f6e0000000000000000000000000000000000000000008152508051906020012081036132ec576000600360008773ffffffffffffffffffffffffffffffffffffffff1673ffffffffffffffffffffffffffffffffffffffff16815260200190815260200160002060060160016101000a81548160ff0219169083151502179055506132eb856137e5565b5b604051806080016040528060405180602001604052806000815250815260200160008152602001600254815260200160001515815250600760008773ffffffffffffffffffffffffffffffffffffffff1673ffffffffffffffffffffffffffffffffffffffff16815260200190815260200160002060008201518160000190816133769190614fe3565b50602082015181600101556040820151816002015560608201518160030160006101000a81548160ff02191690831515021790555090505060005b60025481101561352d5760006133e77fa49807205ce4d355092ef5a8a18f56e8913cf4a201fbe287825b095693c2177583611758565b90506000600860008973ffffffffffffffffffffffffffffffffffffffff1673ffffffffffffffffffffffffffffffffffffffff16815260200190815260200160002060008373ffffffffffffffffffffffffffffffffffffffff1673ffffffffffffffffffffffffffffffffffffffff16815260200190815260200160002060000160006101000a81548160ff0219169083151502179055506000600860008973ffffffffffffffffffffffffffffffffffffffff1673ffffffffffffffffffffffffffffffffffffffff16815260200190815260200160002060008373ffffffffffffffffffffffffffffffffffffffff1673ffffffffffffffffffffffffffffffffffffffff16815260200190815260200160002060000160016101000a81548160ff02191690831515021790555050808061352590614d2d565b9150506133b1565b505050505050565b6000613543826000016139a3565b9050919050565b600061355683836139b4565b6135af5782600001829080600181540180825580915050600190039060005260206000200160009091909190915055826000018054905083600101600084815260200190815260200160002081905550600190506135b4565b600090505b92915050565b60007f01ffc9a7000000000000000000000000000000000000000000000000000000007bffffffffffffffffffffffffffffffffffffffffffffffffffffffff1916827bffffffffffffffffffffffffffffffffffffffffffffffffffffffff1916149050919050565b61362e8282611787565b6136a55761363b816139d7565b6136498360001c6020613a04565b60405160200161365a9291906158da565b6040516020818303038152906040526040517f08c379a000000000000000000000000000000000000000000000000000000000815260040161369c9190615914565b60405180910390fd5b5050565b6136b38282611787565b1561378657600080600084815260200190815260200160002060000160008373ffffffffffffffffffffffffffffffffffffffff1673ffffffffffffffffffffffffffffffffffffffff16815260200190815260200160002060006101000a81548160ff02191690831515021790555061372b612e05565b73ffffffffffffffffffffffffffffffffffffffff168173ffffffffffffffffffffffffffffffffffffffff16837ff6391f5c32d9c69d2a47ea670b442974b53935d1edc7fd64eb21e047a839171b60405160405180910390a45b5050565b60006137b2836000018373ffffffffffffffffffffffffffffffffffffffff1660001b613c40565b905092915050565b60008260000182815481106137d2576137d1614ccf565b5b9060005260206000200154905092915050565b60005b60048054905081101561399f578173ffffffffffffffffffffffffffffffffffffffff16600482815481106138205761381f614ccf565b5b9060005260206000200160009054906101000a900473ffffffffffffffffffffffffffffffffffffffff1673ffffffffffffffffffffffffffffffffffffffff160361398c5760008190505b600160048054905061387e9190615475565b81101561393f5760046001826138949190615441565b815481106138a5576138a4614ccf565b5b9060005260206000200160009054906101000a900473ffffffffffffffffffffffffffffffffffffffff16600482815481106138e4576138e3614ccf565b5b9060005260206000200160006101000a81548173ffffffffffffffffffffffffffffffffffffffff021916908373ffffffffffffffffffffffffffffffffffffffff160217905550808061393790614d2d565b91505061386c565b50600480548061395257613951615936565b5b6001900381819060005260206000200160006101000a81549073ffffffffffffffffffffffffffffffffffffffff0219169055905561399f565b808061399790614d2d565b9150506137e8565b5050565b600081600001805490509050919050565b600080836001016000848152602001908152602001600020541415905092915050565b60606139fd8273ffffffffffffffffffffffffffffffffffffffff16601460ff16613a04565b9050919050565b606060006002836002613a179190615965565b613a219190615441565b67ffffffffffffffff811115613a3a57613a39614187565b5b6040519080825280601f01601f191660200182016040528015613a6c5781602001600182028036833780820191505090505b5090507f300000000000000000000000000000000000000000000000000000000000000081600081518110613aa457613aa3614ccf565b5b60200101907effffffffffffffffffffffffffffffffffffffffffffffffffffffffffffff1916908160001a9053507f780000000000000000000000000000000000000000000000000000000000000081600181518110613b0857613b07614ccf565b5b60200101907effffffffffffffffffffffffffffffffffffffffffffffffffffffffffffff1916908160001a90535060006001846002613b489190615965565b613b529190615441565b90505b6001811115613bf2577f3031323334353637383961626364656600000000000000000000000000000000600f861660108110613b9457613b93614ccf565b5b1a60f81b828281518110613bab57613baa614ccf565b5b60200101907effffffffffffffffffffffffffffffffffffffffffffffffffffffffffffff1916908160001a905350600485901c945080613beb906159a7565b9050613b55565b5060008414613c36576040517f08c379a0000000000000000000000000000000000000000000000000000000008152600401613c2d90615a1c565b60405180910390fd5b8091505092915050565b60008083600101600084815260200190815260200160002054905060008114613d48576000600182613c729190615475565b9050600060018660000180549050613c8a9190615475565b9050818114613cf9576000866000018281548110613cab57613caa614ccf565b5b9060005260206000200154905080876000018481548110613ccf57613cce614ccf565b5b90600052602060002001819055508387600101600083815260200190815260200160002081905550505b85600001805480613d0d57613d0c615936565b5b600190038181906000526020600020016000905590558560010160008681526020019081526020016000206000905560019350505050613d4e565b60009150505b92915050565b604051806101000160405280600073ffffffffffffffffffffffffffffffffffffffff16815260200160608152602001606081526020016060815260200160608152602001606081526020016000151581526020016000151581525090565b6000604051905090565b600080fd5b600080fd5b600073ffffffffffffffffffffffffffffffffffffffff82169050919050565b6000613df282613dc7565b9050919050565b613e0281613de7565b8114613e0d57600080fd5b50565b600081359050613e1f81613df9565b92915050565b600060208284031215613e3b57613e3a613dbd565b5b6000613e4984828501613e10565b91505092915050565b600081519050919050565b600082825260208201905092915050565b6000819050602082019050919050565b6000613e8982613dc7565b9050919050565b613e9981613e7e565b82525050565b600081519050919050565b600082825260208201905092915050565b60005b83811015613ed9578082015181840152602081019050613ebe565b60008484015250505050565b6000601f19601f8301169050919050565b6000613f0182613e9f565b613f0b8185613eaa565b9350613f1b818560208601613ebb565b613f2481613ee5565b840191505092915050565b60008115159050919050565b613f4481613f2f565b82525050565b600061010083016000830151613f636000860182613e90565b5060208301518482036020860152613f7b8282613ef6565b91505060408301518482036040860152613f958282613ef6565b91505060608301518482036060860152613faf8282613ef6565b91505060808301518482036080860152613fc98282613ef6565b91505060a083015184820360a0860152613fe38282613ef6565b91505060c0830151613ff860c0860182613f3b565b5060e083015161400b60e0860182613f3b565b508091505092915050565b60006140228383613f4a565b905092915050565b6000602082019050919050565b600061404282613e52565b61404c8185613e5d565b93508360208202850161405e85613e6e565b8060005b8581101561409a578484038952815161407b8582614016565b94506140868361402a565b925060208a01995050600181019050614062565b50829750879550505050505092915050565b600060208201905081810360008301526140c68184614037565b905092915050565b60007fffffffff0000000000000000000000000000000000000000000000000000000082169050919050565b614103816140ce565b811461410e57600080fd5b50565b600081359050614120816140fa565b92915050565b60006020828403121561413c5761413b613dbd565b5b600061414a84828501614111565b91505092915050565b61415c81613f2f565b82525050565b60006020820190506141776000830184614153565b92915050565b600080fd5b600080fd5b7f4e487b7100000000000000000000000000000000000000000000000000000000600052604160045260246000fd5b6141bf82613ee5565b810181811067ffffffffffffffff821117156141de576141dd614187565b5b80604052505050565b60006141f1613db3565b90506141fd82826141b6565b919050565b600067ffffffffffffffff82111561421d5761421c614187565b5b61422682613ee5565b9050602081019050919050565b82818337600083830152505050565b600061425561425084614202565b6141e7565b90508281526020810184848401111561427157614270614182565b5b61427c848285614233565b509392505050565b600082601f8301126142995761429861417d565b5b81356142a9848260208601614242565b91505092915050565b600080600080600060a086880312156142ce576142cd613dbd565b5b600086013567ffffffffffffffff8111156142ec576142eb613dc2565b5b6142f888828901614284565b955050602086013567ffffffffffffffff81111561431957614318613dc2565b5b61432588828901614284565b945050604086013567ffffffffffffffff81111561434657614345613dc2565b5b61435288828901614284565b935050606086013567ffffffffffffffff81111561437357614372613dc2565b5b61437f88828901614284565b925050608086013567ffffffffffffffff8111156143a05761439f613dc2565b5b6143ac88828901614284565b9150509295509295909350565b6000819050919050565b6143cc816143b9565b81146143d757600080fd5b50565b6000813590506143e9816143c3565b92915050565b60006020828403121561440557614404613dbd565b5b6000614413848285016143da565b91505092915050565b614425816143b9565b82525050565b6000602082019050614440600083018461441c565b92915050565b61444f81613e7e565b811461445a57600080fd5b50565b60008135905061446c81614446565b92915050565b6000806040838503121561448957614488613dbd565b5b60006144978582860161445d565b925050602083013567ffffffffffffffff8111156144b8576144b7613dc2565b5b6144c485828601614284565b9150509250929050565b600080604083850312156144e5576144e4613dbd565b5b60006144f3858286016143da565b92505060206145048582860161445d565b9150509250929050565b6000819050919050565b6145218161450e565b811461452c57600080fd5b50565b60008135905061453e81614518565b92915050565b6000806040838503121561455b5761455a613dbd565b5b60006145698582860161452f565b925050602061457a8582860161452f565b9150509250929050565b60006020828403121561459a57614599613dbd565b5b60006145a88482850161445d565b91505092915050565b600082825260208201905092915050565b60006145cd82613e9f565b6145d781856145b1565b93506145e7818560208601613ebb565b6145f081613ee5565b840191505092915050565b6146048161450e565b82525050565b6000608082019050818103600083015261462481876145c2565b905061463360208301866145fb565b61464060408301856145fb565b61464d6060830184614153565b95945050505050565b60006020828403121561466c5761466b613dbd565b5b600061467a8482850161452f565b91505092915050565b61468c81613e7e565b82525050565b60006020820190506146a76000830184614683565b92915050565b600080604083850312156146c4576146c3613dbd565b5b60006146d28582860161445d565b92505060206146e38582860161445d565b9150509250929050565b60006040820190506147026000830185614153565b61470f6020830184614153565b9392505050565b6000806040838503121561472d5761472c613dbd565b5b600061473b858286016143da565b925050602061474c8582860161452f565b9150509250929050565b60006101008201905061476c600083018b614683565b818103602083015261477e818a6145c2565b9050818103604083015261479281896145c2565b905081810360608301526147a681886145c2565b905081810360808301526147ba81876145c2565b905081810360a08301526147ce81866145c2565b90506147dd60c0830185614153565b6147ea60e0830184614153565b9998505050505050505050565b6000610100830160008301516148106000860182613e90565b50602083015184820360208601526148288282613ef6565b915050604083015184820360408601526148428282613ef6565b9150506060830151848203606086015261485c8282613ef6565b915050608083015184820360808601526148768282613ef6565b91505060a083015184820360a08601526148908282613ef6565b91505060c08301516148a560c0860182613f3b565b5060e08301516148b860e0860182613f3b565b508091505092915050565b600060208201905081810360008301526148dd81846147f7565b905092915050565b6148ee81613f2f565b81146148f957600080fd5b50565b60008135905061490b816148e5565b92915050565b6000806040838503121561492857614927613dbd565b5b600061493685828601613e10565b9250506020614947858286016148fc565b9150509250929050565b600060208201905061496660008301846145fb565b92915050565b60008060008060008060c0878903121561498957614988613dbd565b5b600061499789828a0161445d565b965050602087013567ffffffffffffffff8111156149b8576149b7613dc2565b5b6149c489828a01614284565b955050604087013567ffffffffffffffff8111156149e5576149e4613dc2565b5b6149f189828a01614284565b945050606087013567ffffffffffffffff811115614a1257614a11613dc2565b5b614a1e89828a01614284565b935050608087013567ffffffffffffffff811115614a3f57614a3e613dc2565b5b614a4b89828a01614284565b92505060a087013567ffffffffffffffff811115614a6c57614a6b613dc2565b5b614a7889828a01614284565b9150509295509295509295565b614a8e81613de7565b82525050565b6000602082019050614aa96000830184614a85565b92915050565b7f4e6f7420656e6f7567682066756e64732070726f766964656400000000000000600082015250565b6000614ae56019836145b1565b9150614af082614aaf565b602082019050919050565b60006020820190508181036000830152614b1481614ad8565b9050919050565b7f4164647265737320697320756e6b6e6f776e206f722062616e6e656400000000600082015250565b6000614b51601c836145b1565b9150614b5c82614b1b565b602082019050919050565b60006020820190508181036000830152614b8081614b44565b9050919050565b600081905092915050565b50565b6000614ba2600083614b87565b9150614bad82614b92565b600082019050919050565b6000614bc382614b95565b9150819050919050565b7f4661696c656420746f2073656e64204574686572000000000000000000000000600082015250565b6000614c036014836145b1565b9150614c0e82614bcd565b602082019050919050565b60006020820190508181036000830152614c3281614bf6565b9050919050565b6000819050919050565b6000614c5e614c59614c5484613dc7565b614c39565b613dc7565b9050919050565b6000614c7082614c43565b9050919050565b6000614c8282614c65565b9050919050565b614c9281614c77565b82525050565b6000606082019050614cad6000830186614683565b614cba6020830185614c89565b614cc760408301846145fb565b949350505050565b7f4e487b7100000000000000000000000000000000000000000000000000000000600052603260045260246000fd5b7f4e487b7100000000000000000000000000000000000000000000000000000000600052601160045260246000fd5b6000614d388261450e565b91507fffffffffffffffffffffffffffffffffffffffffffffffffffffffffffffffff8203614d6a57614d69614cfe565b5b600182019050919050565b7f596f7520617265206e6f74207265676973746572000000000000000000000000600082015250565b6000614dab6014836145b1565b9150614db682614d75565b602082019050919050565b60006020820190508181036000830152614dda81614d9e565b9050919050565b7f4e487b7100000000000000000000000000000000000000000000000000000000600052602260045260246000fd5b60006002820490506001821680614e2857607f821691505b602082108103614e3b57614e3a614de1565b5b50919050565b60008190508160005260206000209050919050565b60006020601f8301049050919050565b600082821b905092915050565b600060088302614ea37fffffffffffffffffffffffffffffffffffffffffffffffffffffffffffffffff82614e66565b614ead8683614e66565b95508019841693508086168417925050509392505050565b6000614ee0614edb614ed68461450e565b614c39565b61450e565b9050919050565b6000819050919050565b614efa83614ec5565b614f0e614f0682614ee7565b848454614e73565b825550505050565b600090565b614f23614f16565b614f2e818484614ef1565b505050565b5b81811015614f5257614f47600082614f1b565b600181019050614f34565b5050565b601f821115614f9757614f6881614e41565b614f7184614e56565b81016020851015614f80578190505b614f94614f8c85614e56565b830182614f33565b50505b505050565b600082821c905092915050565b6000614fba60001984600802614f9c565b1980831691505092915050565b6000614fd38383614fa9565b9150826002028217905092915050565b614fec82613e9f565b67ffffffffffffffff81111561500557615004614187565b5b61500f8254614e10565b61501a828285614f56565b600060209050601f83116001811461504d576000841561503b578287015190505b6150458582614fc7565b8655506150ad565b601f19841661505b86614e41565b60005b828110156150835784890151825560018201915060208501945060208101905061505e565b868310156150a0578489015161509c601f891682614fa9565b8355505b6001600288020188555050505b505050505050565b7f53657373696f6e20616c72656164792072656769737465720000000000000000600082015250565b60006150eb6018836145b1565b91506150f6826150b5565b602082019050919050565b6000602082019050818103600083015261511a816150de565b9050919050565b7f4e616d6520697320756e6b6e6f776e2063686f6f7365206173736f636961746960008201527f6f6e206f722061646d696e730000000000000000000000000000000000000000602082015250565b600061517d602c836145b1565b915061518882615121565b604082019050919050565b600060208201905081810360008301526151ac81615170565b9050919050565b7f4173736f63696174696f6e20686173206e6f74206170706c69656420666f722060008201527f726567697374726174696f6e0000000000000000000000000000000000000000602082015250565b600061520f602c836145b1565b915061521a826151b3565b604082019050919050565b6000602082019050818103600083015261523e81615202565b9050919050565b7f4173736f63696174696f6e206973206e6f742072656769737465720000000000600082015250565b600061527b601b836145b1565b915061528682615245565b602082019050919050565b600060208201905081810360008301526152aa8161526e565b9050919050565b7f41646d696e20616c726561647920726567697374657200000000000000000000600082015250565b60006152e76016836145b1565b91506152f2826152b1565b602082019050919050565b60006020820190508181036000830152615316816152da565b9050919050565b7f54686572652063616e206f6e6c79206265206f6e652061646d696e207265717560008201527f65737420617420612074696d6500000000000000000000000000000000000000602082015250565b6000615379602d836145b1565b91506153848261531d565b604082019050919050565b600060208201905081810360008301526153a88161536c565b9050919050565b7f416363657373436f6e74726f6c3a2063616e206f6e6c792072656e6f756e636560008201527f20726f6c657320666f722073656c660000000000000000000000000000000000602082015250565b600061540b602f836145b1565b9150615416826153af565b604082019050919050565b6000602082019050818103600083015261543a816153fe565b9050919050565b600061544c8261450e565b91506154578361450e565b925082820190508082111561546f5761546e614cfe565b5b92915050565b60006154808261450e565b915061548b8361450e565b92508282039050818111156154a3576154a2614cfe565b5b92915050565b7f4164647265737320697320756e6b6e6f776e0000000000000000000000000000600082015250565b60006154df6012836145b1565b91506154ea826154a9565b602082019050919050565b6000602082019050818103600083015261550e816154d2565b9050919050565b7f566f74696e672069732066696e69736865642e00000000000000000000000000600082015250565b600061554b6013836145b1565b915061555682615515565b602082019050919050565b6000602082019050818103600083015261557a8161553e565b9050919050565b7f596f75206861766520616c726561647920766f7465642e000000000000000000600082015250565b60006155b76017836145b1565b91506155c282615581565b602082019050919050565b600060208201905081810360008301526155e6816155aa565b9050919050565b7f596f757220726571756573742069732070656e64696e67000000000000000000600082015250565b60006156236017836145b1565b915061562e826155ed565b602082019050919050565b6000602082019050818103600083015261565281615616565b9050919050565b7f546f6f206d616e7920726571756573747320706c6561736520747279206c617460008201527f6572000000000000000000000000000000000000000000000000000000000000602082015250565b60006156b56022836145b1565b91506156c082615659565b604082019050919050565b600060208201905081810360008301526156e4816156a8565b9050919050565b7f456d707479206669656c647320617265206e6f7420616c6c6f77656400000000600082015250565b6000615721601c836145b1565b915061572c826156eb565b602082019050919050565b6000602082019050818103600083015261575081615714565b9050919050565b60008190508160005260206000209050919050565b6000815461577981614e10565b6157838186614b87565b9450600182166000811461579e57600181146157b3576157e6565b60ff19831686528115158202860193506157e6565b6157bc85615757565b60005b838110156157de578154818901526001820191506020810190506157bf565b838801955050505b50505092915050565b60006157fb828461576c565b915081905092915050565b600081905092915050565b7f416363657373436f6e74726f6c3a206163636f756e7420000000000000000000600082015250565b6000615847601783615806565b915061585282615811565b601782019050919050565b600061586882613e9f565b6158728185615806565b9350615882818560208601613ebb565b80840191505092915050565b7f206973206d697373696e6720726f6c6520000000000000000000000000000000600082015250565b60006158c4601183615806565b91506158cf8261588e565b601182019050919050565b60006158e58261583a565b91506158f1828561585d565b91506158fc826158b7565b9150615908828461585d565b91508190509392505050565b6000602082019050818103600083015261592e81846145c2565b905092915050565b7f4e487b7100000000000000000000000000000000000000000000000000000000600052603160045260246000fd5b60006159708261450e565b915061597b8361450e565b92508282026159898161450e565b915082820484148315176159a05761599f614cfe565b5b5092915050565b60006159b28261450e565b9150600082036159c5576159c4614cfe565b5b600182039050919050565b7f537472696e67733a20686578206c656e67746820696e73756666696369656e74600082015250565b6000615a066020836145b1565b9150615a11826159d0565b602082019050919050565b60006020820190508181036000830152615a35816159f9565b905091905056fea264697066735822122045770b930a634a68daaa62a63eb87cfc4e4a966cb2a93636436c7c20fee4451164736f6c63430008120033",
  "linkReferences": {},
  "deployedLinkReferences": {}
}