{
    "_format": "hh-sol-artifact-1",
    "contractName": "VoteMajority",
    "sourceName": "contracts/VoteMajority.sol",
    "abi": [
        {
            "inputs": [
                {
                    "internalType": "address[]",
                    "name": "_admins",
                    "type": "address[]"
                }
            ],
            "stateMutability": "nonpayable",
            "type": "constructor"
        },
        {
            "anonymous": false,
            "inputs": [
                {
                    "indexed": true,
                    "internalType": "bytes32",
                    "name": "role",
                    "type": "bytes32"
                },
                {
                    "indexed": true,
                    "internalType": "bytes32",
                    "name": "previousAdminRole",
                    "type": "bytes32"
                },
                {
                    "indexed": true,
                    "internalType": "bytes32",
                    "name": "newAdminRole",
                    "type": "bytes32"
                }
            ],
            "name": "RoleAdminChanged",
            "type": "event"
        },
        {
            "anonymous": false,
            "inputs": [
                {
                    "indexed": true,
                    "internalType": "bytes32",
                    "name": "role",
                    "type": "bytes32"
                },
                {
                    "indexed": true,
                    "internalType": "address",
                    "name": "account",
                    "type": "address"
                },
                {
                    "indexed": true,
                    "internalType": "address",
                    "name": "sender",
                    "type": "address"
                }
            ],
            "name": "RoleGranted",
            "type": "event"
        },
        {
            "anonymous": false,
            "inputs": [
                {
                    "indexed": true,
                    "internalType": "bytes32",
                    "name": "role",
                    "type": "bytes32"
                },
                {
                    "indexed": true,
                    "internalType": "address",
                    "name": "account",
                    "type": "address"
                },
                {
                    "indexed": true,
                    "internalType": "address",
                    "name": "sender",
                    "type": "address"
                }
            ],
            "name": "RoleRevoked",
            "type": "event"
        },
        {
            "anonymous": false,
            "inputs": [
                {
                    "indexed": true,
                    "internalType": "address",
                    "name": "voter",
                    "type": "address"
                },
                {
                    "indexed": false,
                    "internalType": "bool",
                    "name": "vote",
                    "type": "bool"
                }
            ],
            "name": "Vote",
            "type": "event"
        },
        {
            "inputs": [],
            "name": "ADMIN_ROLE",
            "outputs": [
                {
                    "internalType": "bytes32",
                    "name": "",
                    "type": "bytes32"
                }
            ],
            "stateMutability": "view",
            "type": "function"
        },
        {
            "inputs": [],
            "name": "DEFAULT_ADMIN_ROLE",
            "outputs": [
                {
                    "internalType": "bytes32",
                    "name": "",
                    "type": "bytes32"
                }
            ],
            "stateMutability": "view",
            "type": "function"
        },
        {
            "inputs": [
                {
                    "internalType": "uint256",
                    "name": "",
                    "type": "uint256"
                }
            ],
            "name": "associationAccepted",
            "outputs": [
                {
                    "internalType": "address payable",
                    "name": "",
                    "type": "address"
                }
            ],
            "stateMutability": "view",
            "type": "function"
        },
        {
            "inputs": [
                {
                    "internalType": "address",
                    "name": "",
                    "type": "address"
                }
            ],
            "name": "associations",
            "outputs": [
                {
                    "internalType": "address",
                    "name": "addr",
                    "type": "address"
                },
                {
                    "internalType": "string",
                    "name": "name",
                    "type": "string"
                },
                {
                    "internalType": "string",
                    "name": "activity",
                    "type": "string"
                },
                {
                    "internalType": "string",
                    "name": "goal",
                    "type": "string"
                },
                {
                    "internalType": "string",
                    "name": "localisation",
                    "type": "string"
                },
                {
                    "internalType": "string",
                    "name": "officialWebsite",
                    "type": "string"
                },
                {
                    "internalType": "bool",
                    "name": "isRegister",
                    "type": "bool"
                },
                {
                    "internalType": "bool",
                    "name": "onStandBy",
                    "type": "bool"
                }
            ],
            "stateMutability": "view",
            "type": "function"
        },
        {
            "inputs": [
                {
                    "internalType": "uint256",
                    "name": "",
                    "type": "uint256"
                }
            ],
            "name": "associationsOnStandby",
            "outputs": [
                {
                    "internalType": "address",
                    "name": "",
                    "type": "address"
                }
            ],
            "stateMutability": "view",
            "type": "function"
        },
        {
            "inputs": [
                {
                    "internalType": "address",
                    "name": "_addressSession",
                    "type": "address"
                },
                {
                    "internalType": "string",
                    "name": "_name",
                    "type": "string"
                }
            ],
            "name": "createSession",
            "outputs": [],
            "stateMutability": "nonpayable",
            "type": "function"
        },
        {
            "inputs": [
                {
                    "internalType": "bytes32",
                    "name": "role",
                    "type": "bytes32"
                }
            ],
            "name": "getRoleAdmin",
            "outputs": [
                {
                    "internalType": "bytes32",
                    "name": "",
                    "type": "bytes32"
                }
            ],
            "stateMutability": "view",
            "type": "function"
        },
        {
            "inputs": [
                {
                    "internalType": "bytes32",
                    "name": "role",
                    "type": "bytes32"
                },
                {
                    "internalType": "uint256",
                    "name": "index",
                    "type": "uint256"
                }
            ],
            "name": "getRoleMember",
            "outputs": [
                {
                    "internalType": "address",
                    "name": "",
                    "type": "address"
                }
            ],
            "stateMutability": "view",
            "type": "function"
        },
        {
            "inputs": [
                {
                    "internalType": "bytes32",
                    "name": "role",
                    "type": "bytes32"
                }
            ],
            "name": "getRoleMemberCount",
            "outputs": [
                {
                    "internalType": "uint256",
                    "name": "",
                    "type": "uint256"
                }
            ],
            "stateMutability": "view",
            "type": "function"
        },
        {
            "inputs": [
                {
                    "internalType": "bytes32",
                    "name": "role",
                    "type": "bytes32"
                },
                {
                    "internalType": "address",
                    "name": "account",
                    "type": "address"
                }
            ],
            "name": "grantRole",
            "outputs": [],
            "stateMutability": "nonpayable",
            "type": "function"
        },
        {
            "inputs": [
                {
                    "internalType": "bytes32",
                    "name": "role",
                    "type": "bytes32"
                },
                {
                    "internalType": "address",
                    "name": "account",
                    "type": "address"
                }
            ],
            "name": "hasRole",
            "outputs": [
                {
                    "internalType": "bool",
                    "name": "",
                    "type": "bool"
                }
            ],
            "stateMutability": "view",
            "type": "function"
        },
        {
            "inputs": [
                {
                    "internalType": "bytes32",
                    "name": "role",
                    "type": "bytes32"
                },
                {
                    "internalType": "address",
                    "name": "account",
                    "type": "address"
                }
            ],
            "name": "renounceRole",
            "outputs": [],
            "stateMutability": "nonpayable",
            "type": "function"
        },
        {
            "inputs": [
                {
                    "internalType": "bytes32",
                    "name": "role",
                    "type": "bytes32"
                },
                {
                    "internalType": "address",
                    "name": "account",
                    "type": "address"
                }
            ],
            "name": "revokeRole",
            "outputs": [],
            "stateMutability": "nonpayable",
            "type": "function"
        },
        {
            "inputs": [
                {
                    "internalType": "address",
                    "name": "",
                    "type": "address"
                },
                {
                    "internalType": "address",
                    "name": "",
                    "type": "address"
                }
            ],
            "name": "sessionAdmin",
            "outputs": [
                {
                    "internalType": "bool",
                    "name": "hasVoted",
                    "type": "bool"
                },
                {
                    "internalType": "bool",
                    "name": "hasApproved",
                    "type": "bool"
                }
            ],
            "stateMutability": "view",
            "type": "function"
        },
        {
            "inputs": [
                {
                    "internalType": "address",
                    "name": "",
                    "type": "address"
                }
            ],
            "name": "sessions",
            "outputs": [
                {
                    "internalType": "string",
                    "name": "name",
                    "type": "string"
                },
                {
                    "internalType": "uint256",
                    "name": "totalVotes",
                    "type": "uint256"
                },
                {
                    "internalType": "uint256",
                    "name": "majorityThreshold",
                    "type": "uint256"
                },
                {
                    "internalType": "bool",
                    "name": "isActive",
                    "type": "bool"
                }
            ],
            "stateMutability": "view",
            "type": "function"
        },
        {
            "inputs": [
                {
                    "internalType": "bytes4",
                    "name": "interfaceId",
                    "type": "bytes4"
                }
            ],
            "name": "supportsInterface",
            "outputs": [
                {
                    "internalType": "bool",
                    "name": "",
                    "type": "bool"
                }
            ],
            "stateMutability": "view",
            "type": "function"
        },
        {
            "inputs": [
                {
                    "internalType": "address payable",
                    "name": "_addrSession",
                    "type": "address"
                },
                {
                    "internalType": "bool",
                    "name": "_vote",
                    "type": "bool"
                }
            ],
            "name": "vote",
            "outputs": [],
            "stateMutability": "nonpayable",
            "type": "function"
        }
    ],
    "bytecode": "0x60806040523480156200001157600080fd5b5060405162003be438038062003be4833981810160405281019062000037919062000526565b805160028190555060005b600254811015620000b0576200009c7fa49807205ce4d355092ef5a8a18f56e8913cf4a201fbe287825b095693c2177583838151811062000088576200008762000577565b5b6020026020010151620000b860201b60201c565b80620000a890620005df565b905062000042565b50506200062c565b620000cf82826200010060201b620013001760201c565b620000fb8160016000858152602001908152602001600020620001f160201b620013e01790919060201c565b505050565b6200011282826200022960201b60201c565b620001ed57600160008084815260200190815260200160002060000160008373ffffffffffffffffffffffffffffffffffffffff1673ffffffffffffffffffffffffffffffffffffffff16815260200190815260200160002060006101000a81548160ff021916908315150217905550620001926200029360201b60201c565b73ffffffffffffffffffffffffffffffffffffffff168173ffffffffffffffffffffffffffffffffffffffff16837f2f8788117e7eff1d82e926ec794901d17c78024a50270940304540a733656f0d60405160405180910390a45b5050565b600062000221836000018373ffffffffffffffffffffffffffffffffffffffff1660001b6200029b60201b60201c565b905092915050565b600080600084815260200190815260200160002060000160008373ffffffffffffffffffffffffffffffffffffffff1673ffffffffffffffffffffffffffffffffffffffff16815260200190815260200160002060009054906101000a900460ff16905092915050565b600033905090565b6000620002af83836200031560201b60201c565b6200030a5782600001829080600181540180825580915050600190039060005260206000200160009091909190915055826000018054905083600101600084815260200190815260200160002081905550600190506200030f565b600090505b92915050565b600080836001016000848152602001908152602001600020541415905092915050565b6000604051905090565b600080fd5b600080fd5b600080fd5b6000601f19601f8301169050919050565b7f4e487b7100000000000000000000000000000000000000000000000000000000600052604160045260246000fd5b6200039c8262000351565b810181811067ffffffffffffffff82111715620003be57620003bd62000362565b5b80604052505050565b6000620003d362000338565b9050620003e1828262000391565b919050565b600067ffffffffffffffff82111562000404576200040362000362565b5b602082029050602081019050919050565b600080fd5b600073ffffffffffffffffffffffffffffffffffffffff82169050919050565b600062000447826200041a565b9050919050565b62000459816200043a565b81146200046557600080fd5b50565b60008151905062000479816200044e565b92915050565b6000620004966200049084620003e6565b620003c7565b90508083825260208201905060208402830185811115620004bc57620004bb62000415565b5b835b81811015620004e95780620004d4888262000468565b845260208401935050602081019050620004be565b5050509392505050565b600082601f8301126200050b576200050a6200034c565b5b81516200051d8482602086016200047f565b91505092915050565b6000602082840312156200053f576200053e62000342565b5b600082015167ffffffffffffffff81111562000560576200055f62000347565b5b6200056e84828501620004f3565b91505092915050565b7f4e487b7100000000000000000000000000000000000000000000000000000000600052603260045260246000fd5b7f4e487b7100000000000000000000000000000000000000000000000000000000600052601160045260246000fd5b6000819050919050565b6000620005ec82620005d5565b91507fffffffffffffffffffffffffffffffffffffffffffffffffffffffffffffffff8203620006215762000620620005a6565b5b600182019050919050565b6135a8806200063c6000396000f3fe608060405234801561001057600080fd5b506004361061010b5760003560e01c806375b238fc116100a2578063a217fddf11610071578063a217fddf1461030d578063bd041c4d1461032b578063ca15c87314610347578063d547741f14610377578063f189e0b5146103935761010b565b806375b238fc146102585780639010d07c1461027657806391d14854146102a657806395d1d4c5146102d65761010b565b806336568abe116100de57806336568abe146101a8578063431a1b97146101c457806345118fd8146101f75780634f1ce3fa146102275761010b565b806301ffc9a714610110578063248a9ca3146101405780632bd7aa29146101705780632f2ff15d1461018c575b600080fd5b61012a60048036038101906101259190612433565b6103c3565b604051610137919061247b565b60405180910390f35b61015a600480360381019061015591906124cc565b61043d565b6040516101679190612508565b60405180910390f35b61018a600480360381019061018591906126c7565b61045c565b005b6101a660048036038101906101a19190612723565b6108a6565b005b6101c260048036038101906101bd9190612723565b6108c7565b005b6101de60048036038101906101d99190612763565b61094a565b6040516101ee9493929190612828565b60405180910390f35b610211600480360381019061020c91906128a0565b610a0f565b60405161021e91906128dc565b60405180910390f35b610241600480360381019061023c91906128f7565b610a4e565b60405161024f929190612937565b60405180910390f35b610260610a99565b60405161026d9190612508565b60405180910390f35b610290600480360381019061028b9190612960565b610abd565b60405161029d91906128dc565b60405180910390f35b6102c060048036038101906102bb9190612723565b610aec565b6040516102cd919061247b565b60405180910390f35b6102f060048036038101906102eb9190612763565b610b56565b6040516103049897969594939291906129a0565b60405180910390f35b610315610e80565b6040516103229190612508565b60405180910390f35b61034560048036038101906103409190612aab565b610e87565b005b610361600480360381019061035c91906124cc565b61127c565b60405161036e9190612aeb565b60405180910390f35b610391600480360381019061038c9190612723565b6112a0565b005b6103ad60048036038101906103a891906128a0565b6112c1565b6040516103ba9190612b15565b60405180910390f35b60007f5a05180f000000000000000000000000000000000000000000000000000000007bffffffffffffffffffffffffffffffffffffffffffffffffffffffff1916827bffffffffffffffffffffffffffffffffffffffffffffffffffffffff19161480610436575061043582611410565b5b9050919050565b6000806000838152602001908152602001600020600101549050919050565b7fa49807205ce4d355092ef5a8a18f56e8913cf4a201fbe287825b095693c217756104868161148a565b600660008473ffffffffffffffffffffffffffffffffffffffff1673ffffffffffffffffffffffffffffffffffffffff16815260200190815260200160002060030160009054906101000a900460ff1615610516576040517f08c379a000000000000000000000000000000000000000000000000000000000815260040161050d90612b7c565b60405180910390fd5b6040518060400160405280600b81526020017f6173736f63696174696f6e00000000000000000000000000000000000000000081525080519060200120828051906020012014806105a957506040518060400160405280600581526020017f61646d696e000000000000000000000000000000000000000000000000000000815250805190602001208280519060200120145b806105f657506040518060400160405280601181526020017f7265766f6b654173736f63696174696f6e000000000000000000000000000000815250805190602001208280519060200120145b610635576040517f08c379a000000000000000000000000000000000000000000000000000000000815260040161062c90612c0e565b60405180910390fd5b6040518060400160405280600b81526020017f6173736f63696174696f6e0000000000000000000000000000000000000000008152508051906020012082805190602001200361071357600360008473ffffffffffffffffffffffffffffffffffffffff1673ffffffffffffffffffffffffffffffffffffffff16815260200190815260200160002060060160019054906101000a900460ff1661070e576040517f08c379a000000000000000000000000000000000000000000000000000000000815260040161070590612ca0565b60405180910390fd5b6107ee565b6040518060400160405280601181526020017f7265766f6b654173736f63696174696f6e000000000000000000000000000000815250805190602001208280519060200120036107ed57600360008473ffffffffffffffffffffffffffffffffffffffff1673ffffffffffffffffffffffffffffffffffffffff16815260200190815260200160002060060160009054906101000a900460ff166107ec576040517f08c379a00000000000000000000000000000000000000000000000000000000081526004016107e390612d0c565b60405180910390fd5b5b5b604051806080016040528083815260200160008152602001600254815260200160011515815250600660008573ffffffffffffffffffffffffffffffffffffffff1673ffffffffffffffffffffffffffffffffffffffff16815260200190815260200160002060008201518160000190816108699190612f38565b50602082015181600101556040820151816002015560608201518160030160006101000a81548160ff021916908315150217905550905050505050565b6108af8261043d565b6108b88161148a565b6108c2838361149e565b505050565b6108cf6114d2565b73ffffffffffffffffffffffffffffffffffffffff168173ffffffffffffffffffffffffffffffffffffffff161461093c576040517f08c379a00000000000000000000000000000000000000000000000000000000081526004016109339061307c565b60405180910390fd5b61094682826114da565b5050565b600660205280600052604060002060009150905080600001805461096d90612d5b565b80601f016020809104026020016040519081016040528092919081815260200182805461099990612d5b565b80156109e65780601f106109bb576101008083540402835291602001916109e6565b820191906000526020600020905b8154815290600101906020018083116109c957829003601f168201915b5050505050908060010154908060020154908060030160009054906101000a900460ff16905084565b60048181548110610a1f57600080fd5b906000526020600020016000915054906101000a900473ffffffffffffffffffffffffffffffffffffffff1681565b6007602052816000526040600020602052806000526040600020600091509150508060000160009054906101000a900460ff16908060000160019054906101000a900460ff16905082565b7fa49807205ce4d355092ef5a8a18f56e8913cf4a201fbe287825b095693c2177581565b6000610ae4826001600086815260200190815260200160002061150e90919063ffffffff16565b905092915050565b600080600084815260200190815260200160002060000160008373ffffffffffffffffffffffffffffffffffffffff1673ffffffffffffffffffffffffffffffffffffffff16815260200190815260200160002060009054906101000a900460ff16905092915050565b60036020528060005260406000206000915090508060000160009054906101000a900473ffffffffffffffffffffffffffffffffffffffff1690806001018054610b9f90612d5b565b80601f0160208091040260200160405190810160405280929190818152602001828054610bcb90612d5b565b8015610c185780601f10610bed57610100808354040283529160200191610c18565b820191906000526020600020905b815481529060010190602001808311610bfb57829003601f168201915b505050505090806002018054610c2d90612d5b565b80601f0160208091040260200160405190810160405280929190818152602001828054610c5990612d5b565b8015610ca65780601f10610c7b57610100808354040283529160200191610ca6565b820191906000526020600020905b815481529060010190602001808311610c8957829003601f168201915b505050505090806003018054610cbb90612d5b565b80601f0160208091040260200160405190810160405280929190818152602001828054610ce790612d5b565b8015610d345780601f10610d0957610100808354040283529160200191610d34565b820191906000526020600020905b815481529060010190602001808311610d1757829003601f168201915b505050505090806004018054610d4990612d5b565b80601f0160208091040260200160405190810160405280929190818152602001828054610d7590612d5b565b8015610dc25780601f10610d9757610100808354040283529160200191610dc2565b820191906000526020600020905b815481529060010190602001808311610da557829003601f168201915b505050505090806005018054610dd790612d5b565b80601f0160208091040260200160405190810160405280929190818152602001828054610e0390612d5b565b8015610e505780601f10610e2557610100808354040283529160200191610e50565b820191906000526020600020905b815481529060010190602001808311610e3357829003601f168201915b5050505050908060060160009054906101000a900460ff16908060060160019054906101000a900460ff16905088565b6000801b81565b7fa49807205ce4d355092ef5a8a18f56e8913cf4a201fbe287825b095693c21775610eb18161148a565b600660008473ffffffffffffffffffffffffffffffffffffffff1673ffffffffffffffffffffffffffffffffffffffff16815260200190815260200160002060030160009054906101000a900460ff16610f40576040517f08c379a0000000000000000000000000000000000000000000000000000000008152600401610f37906130e8565b60405180910390fd5b600760008473ffffffffffffffffffffffffffffffffffffffff1673ffffffffffffffffffffffffffffffffffffffff16815260200190815260200160002060003373ffffffffffffffffffffffffffffffffffffffff1673ffffffffffffffffffffffffffffffffffffffff16815260200190815260200160002060000160009054906101000a900460ff161561100d576040517f08c379a000000000000000000000000000000000000000000000000000000000815260040161100490613154565b60405180910390fd5b6001600760008573ffffffffffffffffffffffffffffffffffffffff1673ffffffffffffffffffffffffffffffffffffffff16815260200190815260200160002060003373ffffffffffffffffffffffffffffffffffffffff1673ffffffffffffffffffffffffffffffffffffffff16815260200190815260200160002060000160006101000a81548160ff02191690831515021790555081600760008573ffffffffffffffffffffffffffffffffffffffff1673ffffffffffffffffffffffffffffffffffffffff16815260200190815260200160002060003373ffffffffffffffffffffffffffffffffffffffff1673ffffffffffffffffffffffffffffffffffffffff16815260200190815260200160002060000160016101000a81548160ff021916908315150217905550600660008473ffffffffffffffffffffffffffffffffffffffff1673ffffffffffffffffffffffffffffffffffffffff168152602001908152602001600020600101600081548092919061118f906131a3565b91905055503373ffffffffffffffffffffffffffffffffffffffff167fa635d31e67484fd1d93ba01ab0ef882e4440a78aa40d0e2771e8a2aace459869836040516111da919061247b565b60405180910390a2600660008473ffffffffffffffffffffffffffffffffffffffff1673ffffffffffffffffffffffffffffffffffffffff16815260200190815260200160002060020154600660008573ffffffffffffffffffffffffffffffffffffffff1673ffffffffffffffffffffffffffffffffffffffff16815260200190815260200160002060010154106112775761127683611528565b5b505050565b600061129960016000848152602001908152602001600020611ba8565b9050919050565b6112a98261043d565b6112b28161148a565b6112bc83836114da565b505050565b600581815481106112d157600080fd5b906000526020600020016000915054906101000a900473ffffffffffffffffffffffffffffffffffffffff1681565b61130a8282610aec565b6113dc57600160008084815260200190815260200160002060000160008373ffffffffffffffffffffffffffffffffffffffff1673ffffffffffffffffffffffffffffffffffffffff16815260200190815260200160002060006101000a81548160ff0219169083151502179055506113816114d2565b73ffffffffffffffffffffffffffffffffffffffff168173ffffffffffffffffffffffffffffffffffffffff16837f2f8788117e7eff1d82e926ec794901d17c78024a50270940304540a733656f0d60405160405180910390a45b5050565b6000611408836000018373ffffffffffffffffffffffffffffffffffffffff1660001b611bbd565b905092915050565b60007f7965db0b000000000000000000000000000000000000000000000000000000007bffffffffffffffffffffffffffffffffffffffffffffffffffffffff1916827bffffffffffffffffffffffffffffffffffffffffffffffffffffffff19161480611483575061148282611c2d565b5b9050919050565b61149b816114966114d2565b611c97565b50565b6114a88282611300565b6114cd81600160008581526020019081526020016000206113e090919063ffffffff16565b505050565b600033905090565b6114e48282611d1c565b6115098160016000858152602001908152602001600020611dfd90919063ffffffff16565b505050565b600061151d8360000183611e2d565b60001c905092915050565b60008060005b6002548110156116345760006115647fa49807205ce4d355092ef5a8a18f56e8913cf4a201fbe287825b095693c2177583610abd565b905060011515600760008773ffffffffffffffffffffffffffffffffffffffff1673ffffffffffffffffffffffffffffffffffffffff16815260200190815260200160002060008373ffffffffffffffffffffffffffffffffffffffff1673ffffffffffffffffffffffffffffffffffffffff16815260200190815260200160002060000160019054906101000a900460ff16151503611611578380611609906131a3565b945050611620565b828061161c906131a3565b9350505b50808061162c906131a3565b91505061152e565b50600081831190506000600660008673ffffffffffffffffffffffffffffffffffffffff1673ffffffffffffffffffffffffffffffffffffffff16815260200190815260200160002060000160405161168d919061328e565b6040518091039020905081156118b7576040518060400160405280600581526020017f61646d696e00000000000000000000000000000000000000000000000000000081525080519060200120810361170f5761170a7fa49807205ce4d355092ef5a8a18f56e8913cf4a201fbe287825b095693c217758661149e565b6118b6565b6040518060400160405280600b81526020017f6173736f63696174696f6e000000000000000000000000000000000000000000815250805190602001208103611815576005859080600181540180825580915050600190039060005260206000200160009091909190916101000a81548173ffffffffffffffffffffffffffffffffffffffff021916908373ffffffffffffffffffffffffffffffffffffffff1602179055506001600360008773ffffffffffffffffffffffffffffffffffffffff1673ffffffffffffffffffffffffffffffffffffffff16815260200190815260200160002060060160006101000a81548160ff0219169083151502179055506118b5565b6040518060400160405280601181526020017f7265766f6b654173736f63696174696f6e0000000000000000000000000000008152508051906020012081036118b4576000600360008773ffffffffffffffffffffffffffffffffffffffff1673ffffffffffffffffffffffffffffffffffffffff16815260200190815260200160002060060160006101000a81548160ff0219169083151502179055505b5b5b5b6040518060400160405280600b81526020017f6173736f63696174696f6e00000000000000000000000000000000000000000081525080519060200120810361195f576000600360008773ffffffffffffffffffffffffffffffffffffffff1673ffffffffffffffffffffffffffffffffffffffff16815260200190815260200160002060060160016101000a81548160ff02191690831515021790555061195e85611e58565b5b604051806080016040528060405180602001604052806000815250815260200160008152602001600254815260200160001515815250600660008773ffffffffffffffffffffffffffffffffffffffff1673ffffffffffffffffffffffffffffffffffffffff16815260200190815260200160002060008201518160000190816119e99190612f38565b50602082015181600101556040820151816002015560608201518160030160006101000a81548160ff02191690831515021790555090505060005b600254811015611ba0576000611a5a7fa49807205ce4d355092ef5a8a18f56e8913cf4a201fbe287825b095693c2177583610abd565b90506000600760008973ffffffffffffffffffffffffffffffffffffffff1673ffffffffffffffffffffffffffffffffffffffff16815260200190815260200160002060008373ffffffffffffffffffffffffffffffffffffffff1673ffffffffffffffffffffffffffffffffffffffff16815260200190815260200160002060000160006101000a81548160ff0219169083151502179055506000600760008973ffffffffffffffffffffffffffffffffffffffff1673ffffffffffffffffffffffffffffffffffffffff16815260200190815260200160002060008373ffffffffffffffffffffffffffffffffffffffff1673ffffffffffffffffffffffffffffffffffffffff16815260200190815260200160002060000160016101000a81548160ff021916908315150217905550508080611b98906131a3565b915050611a24565b505050505050565b6000611bb682600001612016565b9050919050565b6000611bc98383612027565b611c22578260000182908060018154018082558091505060019003906000526020600020016000909190919091505582600001805490508360010160008481526020019081526020016000208190555060019050611c27565b600090505b92915050565b60007f01ffc9a7000000000000000000000000000000000000000000000000000000007bffffffffffffffffffffffffffffffffffffffffffffffffffffffff1916827bffffffffffffffffffffffffffffffffffffffffffffffffffffffff1916149050919050565b611ca18282610aec565b611d1857611cae8161204a565b611cbc8360001c6020612077565b604051602001611ccd929190613379565b6040516020818303038152906040526040517f08c379a0000000000000000000000000000000000000000000000000000000008152600401611d0f91906133b3565b60405180910390fd5b5050565b611d268282610aec565b15611df957600080600084815260200190815260200160002060000160008373ffffffffffffffffffffffffffffffffffffffff1673ffffffffffffffffffffffffffffffffffffffff16815260200190815260200160002060006101000a81548160ff021916908315150217905550611d9e6114d2565b73ffffffffffffffffffffffffffffffffffffffff168173ffffffffffffffffffffffffffffffffffffffff16837ff6391f5c32d9c69d2a47ea670b442974b53935d1edc7fd64eb21e047a839171b60405160405180910390a45b5050565b6000611e25836000018373ffffffffffffffffffffffffffffffffffffffff1660001b6122b3565b905092915050565b6000826000018281548110611e4557611e446133d5565b5b9060005260206000200154905092915050565b60005b600480549050811015612012578173ffffffffffffffffffffffffffffffffffffffff1660048281548110611e9357611e926133d5565b5b9060005260206000200160009054906101000a900473ffffffffffffffffffffffffffffffffffffffff1673ffffffffffffffffffffffffffffffffffffffff1603611fff5760008190505b6001600480549050611ef19190613404565b811015611fb2576004600182611f079190613438565b81548110611f1857611f176133d5565b5b9060005260206000200160009054906101000a900473ffffffffffffffffffffffffffffffffffffffff1660048281548110611f5757611f566133d5565b5b9060005260206000200160006101000a81548173ffffffffffffffffffffffffffffffffffffffff021916908373ffffffffffffffffffffffffffffffffffffffff1602179055508080611faa906131a3565b915050611edf565b506004805480611fc557611fc461346c565b5b6001900381819060005260206000200160006101000a81549073ffffffffffffffffffffffffffffffffffffffff02191690559055612012565b808061200a906131a3565b915050611e5b565b5050565b600081600001805490509050919050565b600080836001016000848152602001908152602001600020541415905092915050565b60606120708273ffffffffffffffffffffffffffffffffffffffff16601460ff16612077565b9050919050565b60606000600283600261208a919061349b565b6120949190613438565b67ffffffffffffffff8111156120ad576120ac61259c565b5b6040519080825280601f01601f1916602001820160405280156120df5781602001600182028036833780820191505090505b5090507f300000000000000000000000000000000000000000000000000000000000000081600081518110612117576121166133d5565b5b60200101907effffffffffffffffffffffffffffffffffffffffffffffffffffffffffffff1916908160001a9053507f78000000000000000000000000000000000000000000000000000000000000008160018151811061217b5761217a6133d5565b5b60200101907effffffffffffffffffffffffffffffffffffffffffffffffffffffffffffff1916908160001a905350600060018460026121bb919061349b565b6121c59190613438565b90505b6001811115612265577f3031323334353637383961626364656600000000000000000000000000000000600f861660108110612207576122066133d5565b5b1a60f81b82828151811061221e5761221d6133d5565b5b60200101907effffffffffffffffffffffffffffffffffffffffffffffffffffffffffffff1916908160001a905350600485901c94508061225e906134dd565b90506121c8565b50600084146122a9576040517f08c379a00000000000000000000000000000000000000000000000000000000081526004016122a090613552565b60405180910390fd5b8091505092915050565b600080836001016000848152602001908152602001600020549050600081146123bb5760006001826122e59190613404565b90506000600186600001805490506122fd9190613404565b905081811461236c57600086600001828154811061231e5761231d6133d5565b5b9060005260206000200154905080876000018481548110612342576123416133d5565b5b90600052602060002001819055508387600101600083815260200190815260200160002081905550505b856000018054806123805761237f61346c565b5b6001900381819060005260206000200160009055905585600101600086815260200190815260200160002060009055600193505050506123c1565b60009150505b92915050565b6000604051905090565b600080fd5b600080fd5b60007fffffffff0000000000000000000000000000000000000000000000000000000082169050919050565b612410816123db565b811461241b57600080fd5b50565b60008135905061242d81612407565b92915050565b600060208284031215612449576124486123d1565b5b60006124578482850161241e565b91505092915050565b60008115159050919050565b61247581612460565b82525050565b6000602082019050612490600083018461246c565b92915050565b6000819050919050565b6124a981612496565b81146124b457600080fd5b50565b6000813590506124c6816124a0565b92915050565b6000602082840312156124e2576124e16123d1565b5b60006124f0848285016124b7565b91505092915050565b61250281612496565b82525050565b600060208201905061251d60008301846124f9565b92915050565b600073ffffffffffffffffffffffffffffffffffffffff82169050919050565b600061254e82612523565b9050919050565b61255e81612543565b811461256957600080fd5b50565b60008135905061257b81612555565b92915050565b600080fd5b600080fd5b6000601f19601f8301169050919050565b7f4e487b7100000000000000000000000000000000000000000000000000000000600052604160045260246000fd5b6125d48261258b565b810181811067ffffffffffffffff821117156125f3576125f261259c565b5b80604052505050565b60006126066123c7565b905061261282826125cb565b919050565b600067ffffffffffffffff8211156126325761263161259c565b5b61263b8261258b565b9050602081019050919050565b82818337600083830152505050565b600061266a61266584612617565b6125fc565b90508281526020810184848401111561268657612685612586565b5b612691848285612648565b509392505050565b600082601f8301126126ae576126ad612581565b5b81356126be848260208601612657565b91505092915050565b600080604083850312156126de576126dd6123d1565b5b60006126ec8582860161256c565b925050602083013567ffffffffffffffff81111561270d5761270c6123d6565b5b61271985828601612699565b9150509250929050565b6000806040838503121561273a576127396123d1565b5b6000612748858286016124b7565b92505060206127598582860161256c565b9150509250929050565b600060208284031215612779576127786123d1565b5b60006127878482850161256c565b91505092915050565b600081519050919050565b600082825260208201905092915050565b60005b838110156127ca5780820151818401526020810190506127af565b60008484015250505050565b60006127e182612790565b6127eb818561279b565b93506127fb8185602086016127ac565b6128048161258b565b840191505092915050565b6000819050919050565b6128228161280f565b82525050565b6000608082019050818103600083015261284281876127d6565b90506128516020830186612819565b61285e6040830185612819565b61286b606083018461246c565b95945050505050565b61287d8161280f565b811461288857600080fd5b50565b60008135905061289a81612874565b92915050565b6000602082840312156128b6576128b56123d1565b5b60006128c48482850161288b565b91505092915050565b6128d681612543565b82525050565b60006020820190506128f160008301846128cd565b92915050565b6000806040838503121561290e5761290d6123d1565b5b600061291c8582860161256c565b925050602061292d8582860161256c565b9150509250929050565b600060408201905061294c600083018561246c565b612959602083018461246c565b9392505050565b60008060408385031215612977576129766123d1565b5b6000612985858286016124b7565b92505060206129968582860161288b565b9150509250929050565b6000610100820190506129b6600083018b6128cd565b81810360208301526129c8818a6127d6565b905081810360408301526129dc81896127d6565b905081810360608301526129f081886127d6565b90508181036080830152612a0481876127d6565b905081810360a0830152612a1881866127d6565b9050612a2760c083018561246c565b612a3460e083018461246c565b9998505050505050505050565b6000612a4c82612523565b9050919050565b612a5c81612a41565b8114612a6757600080fd5b50565b600081359050612a7981612a53565b92915050565b612a8881612460565b8114612a9357600080fd5b50565b600081359050612aa581612a7f565b92915050565b60008060408385031215612ac257612ac16123d1565b5b6000612ad085828601612a6a565b9250506020612ae185828601612a96565b9150509250929050565b6000602082019050612b006000830184612819565b92915050565b612b0f81612a41565b82525050565b6000602082019050612b2a6000830184612b06565b92915050565b7f53657373696f6e20616c72656164792072656769737465720000000000000000600082015250565b6000612b6660188361279b565b9150612b7182612b30565b602082019050919050565b60006020820190508181036000830152612b9581612b59565b9050919050565b7f4e616d6520697320756e6b6e6f776e2063686f6f7365206173736f636961746960008201527f6f6e206f722061646d696e730000000000000000000000000000000000000000602082015250565b6000612bf8602c8361279b565b9150612c0382612b9c565b604082019050919050565b60006020820190508181036000830152612c2781612beb565b9050919050565b7f4173736f63696174696f6e20686173206e6f74206170706c69656420666f722060008201527f726567697374726174696f6e0000000000000000000000000000000000000000602082015250565b6000612c8a602c8361279b565b9150612c9582612c2e565b604082019050919050565b60006020820190508181036000830152612cb981612c7d565b9050919050565b7f4173736f63696174696f6e206973206e6f742072656769737465720000000000600082015250565b6000612cf6601b8361279b565b9150612d0182612cc0565b602082019050919050565b60006020820190508181036000830152612d2581612ce9565b9050919050565b7f4e487b7100000000000000000000000000000000000000000000000000000000600052602260045260246000fd5b60006002820490506001821680612d7357607f821691505b602082108103612d8657612d85612d2c565b5b50919050565b60008190508160005260206000209050919050565b60006020601f8301049050919050565b600082821b905092915050565b600060088302612dee7fffffffffffffffffffffffffffffffffffffffffffffffffffffffffffffffff82612db1565b612df88683612db1565b95508019841693508086168417925050509392505050565b6000819050919050565b6000612e35612e30612e2b8461280f565b612e10565b61280f565b9050919050565b6000819050919050565b612e4f83612e1a565b612e63612e5b82612e3c565b848454612dbe565b825550505050565b600090565b612e78612e6b565b612e83818484612e46565b505050565b5b81811015612ea757612e9c600082612e70565b600181019050612e89565b5050565b601f821115612eec57612ebd81612d8c565b612ec684612da1565b81016020851015612ed5578190505b612ee9612ee185612da1565b830182612e88565b50505b505050565b600082821c905092915050565b6000612f0f60001984600802612ef1565b1980831691505092915050565b6000612f288383612efe565b9150826002028217905092915050565b612f4182612790565b67ffffffffffffffff811115612f5a57612f5961259c565b5b612f648254612d5b565b612f6f828285612eab565b600060209050601f831160018114612fa25760008415612f90578287015190505b612f9a8582612f1c565b865550613002565b601f198416612fb086612d8c565b60005b82811015612fd857848901518255600182019150602085019450602081019050612fb3565b86831015612ff55784890151612ff1601f891682612efe565b8355505b6001600288020188555050505b505050505050565b7f416363657373436f6e74726f6c3a2063616e206f6e6c792072656e6f756e636560008201527f20726f6c657320666f722073656c660000000000000000000000000000000000602082015250565b6000613066602f8361279b565b91506130718261300a565b604082019050919050565b6000602082019050818103600083015261309581613059565b9050919050565b7f566f74696e672069732066696e69736865642e00000000000000000000000000600082015250565b60006130d260138361279b565b91506130dd8261309c565b602082019050919050565b60006020820190508181036000830152613101816130c5565b9050919050565b7f596f75206861766520616c726561647920766f7465642e000000000000000000600082015250565b600061313e60178361279b565b915061314982613108565b602082019050919050565b6000602082019050818103600083015261316d81613131565b9050919050565b7f4e487b7100000000000000000000000000000000000000000000000000000000600052601160045260246000fd5b60006131ae8261280f565b91507fffffffffffffffffffffffffffffffffffffffffffffffffffffffffffffffff82036131e0576131df613174565b5b600182019050919050565b600081905092915050565b60008190508160005260206000209050919050565b6000815461321881612d5b565b61322281866131eb565b9450600182166000811461323d576001811461325257613285565b60ff1983168652811515820286019350613285565b61325b856131f6565b60005b8381101561327d5781548189015260018201915060208101905061325e565b838801955050505b50505092915050565b600061329a828461320b565b915081905092915050565b600081905092915050565b7f416363657373436f6e74726f6c3a206163636f756e7420000000000000000000600082015250565b60006132e66017836132a5565b91506132f1826132b0565b601782019050919050565b600061330782612790565b61331181856132a5565b93506133218185602086016127ac565b80840191505092915050565b7f206973206d697373696e6720726f6c6520000000000000000000000000000000600082015250565b60006133636011836132a5565b915061336e8261332d565b601182019050919050565b6000613384826132d9565b915061339082856132fc565b915061339b82613356565b91506133a782846132fc565b91508190509392505050565b600060208201905081810360008301526133cd81846127d6565b905092915050565b7f4e487b7100000000000000000000000000000000000000000000000000000000600052603260045260246000fd5b600061340f8261280f565b915061341a8361280f565b925082820390508181111561343257613431613174565b5b92915050565b60006134438261280f565b915061344e8361280f565b925082820190508082111561346657613465613174565b5b92915050565b7f4e487b7100000000000000000000000000000000000000000000000000000000600052603160045260246000fd5b60006134a68261280f565b91506134b18361280f565b92508282026134bf8161280f565b915082820484148315176134d6576134d5613174565b5b5092915050565b60006134e88261280f565b9150600082036134fb576134fa613174565b5b600182039050919050565b7f537472696e67733a20686578206c656e67746820696e73756666696369656e74600082015250565b600061353c60208361279b565b915061354782613506565b602082019050919050565b6000602082019050818103600083015261356b8161352f565b905091905056fea2646970667358221220f75107841e33c96fd65f9a873f3ee66f3816fbc731535db4170be96a184cb28864736f6c63430008120033",
    "linkReferences": {},
    "deployedLinkReferences": {}
}